{
  "_format": "hh-sol-artifact-1",
  "contractName": "BlockPager",
  "sourceName": "contracts/BlockPager.sol",
  "abi": [
    {
      "inputs": [],
      "stateMutability": "nonpayable",
      "type": "constructor"
    },
    {
      "anonymous": false,
      "inputs": [
        {
          "indexed": true,
          "internalType": "address",
          "name": "owner",
          "type": "address"
        },
        {
          "indexed": true,
          "internalType": "address",
          "name": "approved",
          "type": "address"
        },
        {
          "indexed": true,
          "internalType": "uint256",
          "name": "tokenId",
          "type": "uint256"
        }
      ],
      "name": "Approval",
      "type": "event"
    },
    {
      "anonymous": false,
      "inputs": [
        {
          "indexed": true,
          "internalType": "address",
          "name": "owner",
          "type": "address"
        },
        {
          "indexed": true,
          "internalType": "address",
          "name": "operator",
          "type": "address"
        },
        {
          "indexed": false,
          "internalType": "bool",
          "name": "approved",
          "type": "bool"
        }
      ],
      "name": "ApprovalForAll",
      "type": "event"
    },
    {
      "anonymous": false,
      "inputs": [
        {
          "indexed": true,
          "internalType": "uint256",
          "name": "tokenId",
          "type": "uint256"
        }
      ],
      "name": "ContentBurned",
      "type": "event"
    },
    {
      "anonymous": false,
      "inputs": [
        {
          "indexed": true,
          "internalType": "uint256",
          "name": "tokenId",
          "type": "uint256"
        }
      ],
      "name": "ContentRead",
      "type": "event"
    },
    {
      "anonymous": false,
      "inputs": [
        {
          "indexed": false,
          "internalType": "address",
          "name": "from",
          "type": "address"
        },
        {
          "indexed": false,
          "internalType": "address",
          "name": "receiver",
          "type": "address"
        },
        {
          "indexed": true,
          "internalType": "uint256",
          "name": "tokenId",
          "type": "uint256"
        }
      ],
      "name": "ContentTransferred",
      "type": "event"
    },
    {
      "anonymous": false,
      "inputs": [
        {
          "indexed": true,
          "internalType": "uint256",
          "name": "tokenId",
          "type": "uint256"
        },
        {
          "indexed": false,
          "internalType": "address",
          "name": "creator",
          "type": "address"
        },
        {
          "indexed": false,
          "internalType": "address",
          "name": "viewer",
          "type": "address"
        },
        {
          "indexed": false,
          "internalType": "uint256",
          "name": "price",
          "type": "uint256"
        },
        {
          "indexed": false,
          "internalType": "bool",
          "name": "isPublic",
          "type": "bool"
        },
        {
          "indexed": false,
          "internalType": "bool",
          "name": "isFeatured",
          "type": "bool"
        }
      ],
      "name": "FeaturedItemCreated",
      "type": "event"
    },
    {
      "anonymous": false,
      "inputs": [
        {
          "indexed": true,
          "internalType": "uint256",
          "name": "tokenId",
          "type": "uint256"
        },
        {
          "indexed": false,
          "internalType": "address",
          "name": "creator",
          "type": "address"
        },
        {
          "indexed": false,
          "internalType": "uint256",
          "name": "numTransfers",
          "type": "uint256"
        },
        {
          "indexed": false,
          "internalType": "uint256",
          "name": "numReads",
          "type": "uint256"
        }
      ],
      "name": "PersonalContentCreated",
      "type": "event"
    },
    {
      "anonymous": false,
      "inputs": [
        {
          "indexed": true,
          "internalType": "uint256",
          "name": "tokenId",
          "type": "uint256"
        },
        {
          "indexed": false,
          "internalType": "address",
          "name": "creator",
          "type": "address"
        },
        {
          "indexed": false,
          "internalType": "address",
          "name": "viewer",
          "type": "address"
        },
        {
          "indexed": false,
          "internalType": "uint256",
          "name": "price",
          "type": "uint256"
        },
        {
          "indexed": false,
          "internalType": "bool",
          "name": "isPublic",
          "type": "bool"
        }
      ],
      "name": "PublicItemCreated",
      "type": "event"
    },
    {
      "anonymous": false,
      "inputs": [
        {
          "indexed": true,
          "internalType": "uint256",
          "name": "tokenId",
          "type": "uint256"
        },
        {
          "indexed": false,
          "internalType": "address",
          "name": "viewer",
          "type": "address"
        },
        {
          "indexed": false,
          "internalType": "uint256",
          "name": "price",
          "type": "uint256"
        },
        {
          "indexed": false,
          "internalType": "bool",
          "name": "hasPaid",
          "type": "bool"
        }
      ],
      "name": "PublicItemViewed",
      "type": "event"
    },
    {
      "anonymous": false,
      "inputs": [
        {
          "indexed": true,
          "internalType": "address",
          "name": "from",
          "type": "address"
        },
        {
          "indexed": true,
          "internalType": "address",
          "name": "to",
          "type": "address"
        },
        {
          "indexed": true,
          "internalType": "uint256",
          "name": "tokenId",
          "type": "uint256"
        }
      ],
      "name": "Transfer",
      "type": "event"
    },
    {
      "inputs": [
        {
          "internalType": "address",
          "name": "",
          "type": "address"
        }
      ],
      "name": "_accounts",
      "outputs": [
        {
          "internalType": "string",
          "name": "accountCID",
          "type": "string"
        },
        {
          "internalType": "address",
          "name": "userWallet",
          "type": "address"
        },
        {
          "internalType": "uint256",
          "name": "userIdNum",
          "type": "uint256"
        },
        {
          "internalType": "bool",
          "name": "exists",
          "type": "bool"
        }
      ],
      "stateMutability": "view",
      "type": "function"
    },
    {
      "inputs": [
        {
          "internalType": "address",
          "name": "",
          "type": "address"
        }
      ],
      "name": "_picture",
      "outputs": [
        {
          "internalType": "string",
          "name": "pictureCID",
          "type": "string"
        }
      ],
      "stateMutability": "view",
      "type": "function"
    },
    {
      "inputs": [
        {
          "internalType": "address",
          "name": "to",
          "type": "address"
        },
        {
          "internalType": "uint256",
          "name": "tokenId",
          "type": "uint256"
        }
      ],
      "name": "approve",
      "outputs": [],
      "stateMutability": "nonpayable",
      "type": "function"
    },
    {
      "inputs": [
        {
          "internalType": "address",
          "name": "owner",
          "type": "address"
        }
      ],
      "name": "balanceOf",
      "outputs": [
        {
          "internalType": "uint256",
          "name": "",
          "type": "uint256"
        }
      ],
      "stateMutability": "view",
      "type": "function"
    },
    {
      "inputs": [
        {
          "internalType": "uint256",
          "name": "tokenId",
          "type": "uint256"
        }
      ],
      "name": "burnContent",
      "outputs": [],
      "stateMutability": "nonpayable",
      "type": "function"
    },
    {
      "inputs": [
        {
          "internalType": "string",
          "name": "tokenURI",
          "type": "string"
        },
        {
          "internalType": "uint256",
          "name": "price",
          "type": "uint256"
        }
      ],
      "name": "createFeaturedItem",
      "outputs": [
        {
          "internalType": "uint256",
          "name": "",
          "type": "uint256"
        }
      ],
      "stateMutability": "payable",
      "type": "function"
    },
    {
      "inputs": [
        {
          "internalType": "string",
          "name": "newAccountCID",
          "type": "string"
        }
      ],
      "name": "createOrUpdateAccount",
      "outputs": [],
      "stateMutability": "nonpayable",
      "type": "function"
    },
    {
      "inputs": [
        {
          "internalType": "string",
          "name": "tokenURI",
          "type": "string"
        },
        {
          "internalType": "uint256",
          "name": "maxReads",
          "type": "uint256"
        }
      ],
      "name": "createPrivateContent",
      "outputs": [
        {
          "internalType": "uint256",
          "name": "",
          "type": "uint256"
        }
      ],
      "stateMutability": "payable",
      "type": "function"
    },
    {
      "inputs": [
        {
          "internalType": "string",
          "name": "tokenURI",
          "type": "string"
        },
        {
          "internalType": "uint256",
          "name": "price",
          "type": "uint256"
        }
      ],
      "name": "createPublicItem",
      "outputs": [
        {
          "internalType": "uint256",
          "name": "",
          "type": "uint256"
        }
      ],
      "stateMutability": "payable",
      "type": "function"
    },
    {
      "inputs": [],
      "name": "fetchAllContents",
      "outputs": [
        {
          "components": [
            {
              "internalType": "uint256",
              "name": "tokenId",
              "type": "uint256"
            },
            {
              "internalType": "address payable",
              "name": "creator",
              "type": "address"
            },
            {
              "internalType": "address payable",
              "name": "viewer",
              "type": "address"
            },
            {
              "internalType": "uint256",
              "name": "numTransfers",
              "type": "uint256"
            },
            {
              "internalType": "uint256",
              "name": "numReads",
              "type": "uint256"
            },
            {
              "internalType": "uint256",
              "name": "numViews",
              "type": "uint256"
            },
            {
              "internalType": "uint256",
              "name": "price",
              "type": "uint256"
            },
            {
              "internalType": "bool",
              "name": "isPublic",
              "type": "bool"
            },
            {
              "internalType": "bool",
              "name": "hasPaid",
              "type": "bool"
            },
            {
              "internalType": "bool",
              "name": "isFeatured",
              "type": "bool"
            },
            {
              "internalType": "uint256",
              "name": "createdAt",
              "type": "uint256"
            },
            {
              "internalType": "uint256",
              "name": "maxReads",
              "type": "uint256"
            }
          ],
          "internalType": "struct BlockPager.Content[]",
          "name": "",
          "type": "tuple[]"
        }
      ],
      "stateMutability": "view",
      "type": "function"
    },
    {
      "inputs": [],
      "name": "fetchFeaturedItems",
      "outputs": [
        {
          "components": [
            {
              "internalType": "uint256",
              "name": "tokenId",
              "type": "uint256"
            },
            {
              "internalType": "address payable",
              "name": "creator",
              "type": "address"
            },
            {
              "internalType": "address payable",
              "name": "viewer",
              "type": "address"
            },
            {
              "internalType": "uint256",
              "name": "numTransfers",
              "type": "uint256"
            },
            {
              "internalType": "uint256",
              "name": "numReads",
              "type": "uint256"
            },
            {
              "internalType": "uint256",
              "name": "numViews",
              "type": "uint256"
            },
            {
              "internalType": "uint256",
              "name": "price",
              "type": "uint256"
            },
            {
              "internalType": "bool",
              "name": "isPublic",
              "type": "bool"
            },
            {
              "internalType": "bool",
              "name": "hasPaid",
              "type": "bool"
            },
            {
              "internalType": "bool",
              "name": "isFeatured",
              "type": "bool"
            },
            {
              "internalType": "uint256",
              "name": "createdAt",
              "type": "uint256"
            },
            {
              "internalType": "uint256",
              "name": "maxReads",
              "type": "uint256"
            }
          ],
          "internalType": "struct BlockPager.Content[]",
          "name": "",
          "type": "tuple[]"
        }
      ],
      "stateMutability": "view",
      "type": "function"
    },
    {
      "inputs": [],
      "name": "fetchMyPublishedItems",
      "outputs": [
        {
          "components": [
            {
              "internalType": "uint256",
              "name": "tokenId",
              "type": "uint256"
            },
            {
              "internalType": "address payable",
              "name": "creator",
              "type": "address"
            },
            {
              "internalType": "address payable",
              "name": "viewer",
              "type": "address"
            },
            {
              "internalType": "uint256",
              "name": "numTransfers",
              "type": "uint256"
            },
            {
              "internalType": "uint256",
              "name": "numReads",
              "type": "uint256"
            },
            {
              "internalType": "uint256",
              "name": "numViews",
              "type": "uint256"
            },
            {
              "internalType": "uint256",
              "name": "price",
              "type": "uint256"
            },
            {
              "internalType": "bool",
              "name": "isPublic",
              "type": "bool"
            },
            {
              "internalType": "bool",
              "name": "hasPaid",
              "type": "bool"
            },
            {
              "internalType": "bool",
              "name": "isFeatured",
              "type": "bool"
            },
            {
              "internalType": "uint256",
              "name": "createdAt",
              "type": "uint256"
            },
            {
              "internalType": "uint256",
              "name": "maxReads",
              "type": "uint256"
            }
          ],
          "internalType": "struct BlockPager.Content[]",
          "name": "",
          "type": "tuple[]"
        }
      ],
      "stateMutability": "view",
      "type": "function"
    },
    {
      "inputs": [],
      "name": "fetchPaidItems",
      "outputs": [
        {
          "components": [
            {
              "internalType": "uint256",
              "name": "tokenId",
              "type": "uint256"
            },
            {
              "internalType": "address payable",
              "name": "creator",
              "type": "address"
            },
            {
              "internalType": "address payable",
              "name": "viewer",
              "type": "address"
            },
            {
              "internalType": "uint256",
              "name": "numTransfers",
              "type": "uint256"
            },
            {
              "internalType": "uint256",
              "name": "numReads",
              "type": "uint256"
            },
            {
              "internalType": "uint256",
              "name": "numViews",
              "type": "uint256"
            },
            {
              "internalType": "uint256",
              "name": "price",
              "type": "uint256"
            },
            {
              "internalType": "bool",
              "name": "isPublic",
              "type": "bool"
            },
            {
              "internalType": "bool",
              "name": "hasPaid",
              "type": "bool"
            },
            {
              "internalType": "bool",
              "name": "isFeatured",
              "type": "bool"
            },
            {
              "internalType": "uint256",
              "name": "createdAt",
              "type": "uint256"
            },
            {
              "internalType": "uint256",
              "name": "maxReads",
              "type": "uint256"
            }
          ],
          "internalType": "struct BlockPager.Content[]",
          "name": "",
          "type": "tuple[]"
        }
      ],
      "stateMutability": "view",
      "type": "function"
    },
    {
      "inputs": [],
      "name": "fetchPrivateContents",
      "outputs": [
        {
          "components": [
            {
              "internalType": "uint256",
              "name": "tokenId",
              "type": "uint256"
            },
            {
              "internalType": "address payable",
              "name": "creator",
              "type": "address"
            },
            {
              "internalType": "address payable",
              "name": "viewer",
              "type": "address"
            },
            {
              "internalType": "uint256",
              "name": "numTransfers",
              "type": "uint256"
            },
            {
              "internalType": "uint256",
              "name": "numReads",
              "type": "uint256"
            },
            {
              "internalType": "uint256",
              "name": "numViews",
              "type": "uint256"
            },
            {
              "internalType": "uint256",
              "name": "price",
              "type": "uint256"
            },
            {
              "internalType": "bool",
              "name": "isPublic",
              "type": "bool"
            },
            {
              "internalType": "bool",
              "name": "hasPaid",
              "type": "bool"
            },
            {
              "internalType": "bool",
              "name": "isFeatured",
              "type": "bool"
            },
            {
              "internalType": "uint256",
              "name": "createdAt",
              "type": "uint256"
            },
            {
              "internalType": "uint256",
              "name": "maxReads",
              "type": "uint256"
            }
          ],
          "internalType": "struct BlockPager.Content[]",
          "name": "",
          "type": "tuple[]"
        }
      ],
      "stateMutability": "view",
      "type": "function"
    },
    {
      "inputs": [
        {
          "internalType": "uint256",
          "name": "tokenId",
          "type": "uint256"
        }
      ],
      "name": "getApproved",
      "outputs": [
        {
          "internalType": "address",
          "name": "",
          "type": "address"
        }
      ],
      "stateMutability": "view",
      "type": "function"
    },
    {
      "inputs": [],
      "name": "getContractOwner",
      "outputs": [
        {
          "internalType": "address",
          "name": "",
          "type": "address"
        }
      ],
      "stateMutability": "view",
      "type": "function"
    },
    {
      "inputs": [
        {
          "internalType": "uint256",
          "name": "tokenId",
          "type": "uint256"
        }
      ],
      "name": "getCreationDate",
      "outputs": [
        {
          "internalType": "uint256",
          "name": "year",
          "type": "uint256"
        },
        {
          "internalType": "uint256",
          "name": "month",
          "type": "uint256"
        },
        {
          "internalType": "uint256",
          "name": "day",
          "type": "uint256"
        },
        {
          "internalType": "uint256",
          "name": "hour",
          "type": "uint256"
        },
        {
          "internalType": "uint256",
          "name": "minute",
          "type": "uint256"
        },
        {
          "internalType": "uint256",
          "name": "second",
          "type": "uint256"
        }
      ],
      "stateMutability": "view",
      "type": "function"
    },
    {
      "inputs": [],
      "name": "getFees",
      "outputs": [
        {
          "internalType": "uint256",
          "name": "",
          "type": "uint256"
        },
        {
          "internalType": "uint256",
          "name": "",
          "type": "uint256"
        }
      ],
      "stateMutability": "view",
      "type": "function"
    },
    {
      "inputs": [],
      "name": "getPicture",
      "outputs": [
        {
          "internalType": "string",
          "name": "",
          "type": "string"
        }
      ],
      "stateMutability": "view",
      "type": "function"
    },
    {
      "inputs": [],
      "name": "getUserAccount",
      "outputs": [
        {
          "internalType": "string",
          "name": "",
          "type": "string"
        },
        {
          "internalType": "address",
          "name": "",
          "type": "address"
        },
        {
          "internalType": "uint256",
          "name": "",
          "type": "uint256"
        },
        {
          "internalType": "bool",
          "name": "",
          "type": "bool"
        }
      ],
      "stateMutability": "view",
      "type": "function"
    },
    {
      "inputs": [
        {
          "internalType": "address",
          "name": "creator",
          "type": "address"
        }
      ],
      "name": "getUserStats",
      "outputs": [
        {
          "internalType": "uint256",
          "name": "",
          "type": "uint256"
        },
        {
          "internalType": "uint256",
          "name": "",
          "type": "uint256"
        },
        {
          "internalType": "uint256",
          "name": "",
          "type": "uint256"
        }
      ],
      "stateMutability": "view",
      "type": "function"
    },
    {
      "inputs": [
        {
          "internalType": "address",
          "name": "owner",
          "type": "address"
        },
        {
          "internalType": "address",
          "name": "operator",
          "type": "address"
        }
      ],
      "name": "isApprovedForAll",
      "outputs": [
        {
          "internalType": "bool",
          "name": "",
          "type": "bool"
        }
      ],
      "stateMutability": "view",
      "type": "function"
    },
    {
      "inputs": [],
      "name": "name",
      "outputs": [
        {
          "internalType": "string",
          "name": "",
          "type": "string"
        }
      ],
      "stateMutability": "view",
      "type": "function"
    },
    {
      "inputs": [
        {
          "internalType": "uint256",
          "name": "tokenId",
          "type": "uint256"
        }
      ],
      "name": "ownerOf",
      "outputs": [
        {
          "internalType": "address",
          "name": "",
          "type": "address"
        }
      ],
      "stateMutability": "view",
      "type": "function"
    },
    {
      "inputs": [
        {
          "internalType": "uint256",
          "name": "tokenId",
          "type": "uint256"
        }
      ],
      "name": "readContent",
      "outputs": [
        {
          "components": [
            {
              "internalType": "uint256",
              "name": "tokenId",
              "type": "uint256"
            },
            {
              "internalType": "address payable",
              "name": "creator",
              "type": "address"
            },
            {
              "internalType": "address payable",
              "name": "viewer",
              "type": "address"
            },
            {
              "internalType": "uint256",
              "name": "numTransfers",
              "type": "uint256"
            },
            {
              "internalType": "uint256",
              "name": "numReads",
              "type": "uint256"
            },
            {
              "internalType": "uint256",
              "name": "numViews",
              "type": "uint256"
            },
            {
              "internalType": "uint256",
              "name": "price",
              "type": "uint256"
            },
            {
              "internalType": "bool",
              "name": "isPublic",
              "type": "bool"
            },
            {
              "internalType": "bool",
              "name": "hasPaid",
              "type": "bool"
            },
            {
              "internalType": "bool",
              "name": "isFeatured",
              "type": "bool"
            },
            {
              "internalType": "uint256",
              "name": "createdAt",
              "type": "uint256"
            },
            {
              "internalType": "uint256",
              "name": "maxReads",
              "type": "uint256"
            }
          ],
          "internalType": "struct BlockPager.Content",
          "name": "",
          "type": "tuple"
        }
      ],
      "stateMutability": "nonpayable",
      "type": "function"
    },
    {
      "inputs": [
        {
          "internalType": "address",
          "name": "from",
          "type": "address"
        },
        {
          "internalType": "address",
          "name": "to",
          "type": "address"
        },
        {
          "internalType": "uint256",
          "name": "tokenId",
          "type": "uint256"
        }
      ],
      "name": "safeTransferFrom",
      "outputs": [],
      "stateMutability": "nonpayable",
      "type": "function"
    },
    {
      "inputs": [
        {
          "internalType": "address",
          "name": "from",
          "type": "address"
        },
        {
          "internalType": "address",
          "name": "to",
          "type": "address"
        },
        {
          "internalType": "uint256",
          "name": "tokenId",
          "type": "uint256"
        },
        {
          "internalType": "bytes",
          "name": "data",
          "type": "bytes"
        }
      ],
      "name": "safeTransferFrom",
      "outputs": [],
      "stateMutability": "nonpayable",
      "type": "function"
    },
    {
      "inputs": [
        {
          "internalType": "address",
          "name": "operator",
          "type": "address"
        },
        {
          "internalType": "bool",
          "name": "approved",
          "type": "bool"
        }
      ],
      "name": "setApprovalForAll",
      "outputs": [],
      "stateMutability": "nonpayable",
      "type": "function"
    },
    {
      "inputs": [
        {
          "internalType": "address",
          "name": "newOwner",
          "type": "address"
        }
      ],
      "name": "setContractOwner",
      "outputs": [],
      "stateMutability": "nonpayable",
      "type": "function"
    },
    {
      "inputs": [
        {
          "internalType": "bytes4",
          "name": "interfaceId",
          "type": "bytes4"
        }
      ],
      "name": "supportsInterface",
      "outputs": [
        {
          "internalType": "bool",
          "name": "",
          "type": "bool"
        }
      ],
      "stateMutability": "view",
      "type": "function"
    },
    {
      "inputs": [],
      "name": "symbol",
      "outputs": [
        {
          "internalType": "string",
          "name": "",
          "type": "string"
        }
      ],
      "stateMutability": "view",
      "type": "function"
    },
    {
      "inputs": [
        {
          "internalType": "uint256",
          "name": "tokenId",
          "type": "uint256"
        }
      ],
      "name": "tokenURI",
      "outputs": [
        {
          "internalType": "string",
          "name": "",
          "type": "string"
        }
      ],
      "stateMutability": "view",
      "type": "function"
    },
    {
      "inputs": [],
      "name": "totalPrivateItems",
      "outputs": [
        {
          "internalType": "uint256",
          "name": "",
          "type": "uint256"
        }
      ],
      "stateMutability": "view",
      "type": "function"
    },
    {
      "inputs": [],
      "name": "totalSupply",
      "outputs": [
        {
          "internalType": "uint256",
          "name": "",
          "type": "uint256"
        }
      ],
      "stateMutability": "view",
      "type": "function"
    },
    {
      "inputs": [
        {
          "internalType": "address payable",
          "name": "receiver",
          "type": "address"
        },
        {
          "internalType": "uint256",
          "name": "tokenId",
          "type": "uint256"
        }
      ],
      "name": "transferContent",
      "outputs": [],
      "stateMutability": "nonpayable",
      "type": "function"
    },
    {
      "inputs": [
        {
          "internalType": "address",
          "name": "from",
          "type": "address"
        },
        {
          "internalType": "address",
          "name": "to",
          "type": "address"
        },
        {
          "internalType": "uint256",
          "name": "tokenId",
          "type": "uint256"
        }
      ],
      "name": "transferFrom",
      "outputs": [],
      "stateMutability": "nonpayable",
      "type": "function"
    },
    {
      "inputs": [
        {
          "internalType": "uint256",
          "name": "_featuredFee",
          "type": "uint256"
        }
      ],
      "name": "updateFeaturedFee",
      "outputs": [],
      "stateMutability": "payable",
      "type": "function"
    },
    {
      "inputs": [
        {
          "internalType": "uint256",
          "name": "_personalFee",
          "type": "uint256"
        }
      ],
      "name": "updatePersonalFee",
      "outputs": [],
      "stateMutability": "payable",
      "type": "function"
    },
    {
      "inputs": [
        {
          "internalType": "string",
          "name": "newPictureCID",
          "type": "string"
        }
      ],
      "name": "updatePicture",
      "outputs": [],
      "stateMutability": "nonpayable",
      "type": "function"
    },
    {
      "inputs": [],
      "name": "userCount",
      "outputs": [
        {
          "internalType": "uint256",
          "name": "",
          "type": "uint256"
        }
      ],
      "stateMutability": "view",
      "type": "function"
    },
    {
      "inputs": [
        {
          "internalType": "uint256",
          "name": "tokenId",
          "type": "uint256"
        }
      ],
      "name": "viewPublicItem",
      "outputs": [
        {
          "internalType": "bool",
          "name": "",
          "type": "bool"
        }
      ],
      "stateMutability": "view",
      "type": "function"
    },
    {
      "inputs": [
        {
          "internalType": "uint256",
          "name": "tokenId",
          "type": "uint256"
        }
      ],
      "name": "viewPublicItemForFree",
      "outputs": [
        {
          "components": [
            {
              "internalType": "uint256",
              "name": "tokenId",
              "type": "uint256"
            },
            {
              "internalType": "address payable",
              "name": "creator",
              "type": "address"
            },
            {
              "internalType": "address payable",
              "name": "viewer",
              "type": "address"
            },
            {
              "internalType": "uint256",
              "name": "numTransfers",
              "type": "uint256"
            },
            {
              "internalType": "uint256",
              "name": "numReads",
              "type": "uint256"
            },
            {
              "internalType": "uint256",
              "name": "numViews",
              "type": "uint256"
            },
            {
              "internalType": "uint256",
              "name": "price",
              "type": "uint256"
            },
            {
              "internalType": "bool",
              "name": "isPublic",
              "type": "bool"
            },
            {
              "internalType": "bool",
              "name": "hasPaid",
              "type": "bool"
            },
            {
              "internalType": "bool",
              "name": "isFeatured",
              "type": "bool"
            },
            {
              "internalType": "uint256",
              "name": "createdAt",
              "type": "uint256"
            },
            {
              "internalType": "uint256",
              "name": "maxReads",
              "type": "uint256"
            }
          ],
          "internalType": "struct BlockPager.Content",
          "name": "",
          "type": "tuple"
        }
      ],
      "stateMutability": "nonpayable",
      "type": "function"
    },
    {
      "inputs": [
        {
          "internalType": "uint256",
          "name": "tokenId",
          "type": "uint256"
        }
      ],
      "name": "viewPublicItemWithPayment",
      "outputs": [
        {
          "components": [
            {
              "internalType": "uint256",
              "name": "tokenId",
              "type": "uint256"
            },
            {
              "internalType": "address payable",
              "name": "creator",
              "type": "address"
            },
            {
              "internalType": "address payable",
              "name": "viewer",
              "type": "address"
            },
            {
              "internalType": "uint256",
              "name": "numTransfers",
              "type": "uint256"
            },
            {
              "internalType": "uint256",
              "name": "numReads",
              "type": "uint256"
            },
            {
              "internalType": "uint256",
              "name": "numViews",
              "type": "uint256"
            },
            {
              "internalType": "uint256",
              "name": "price",
              "type": "uint256"
            },
            {
              "internalType": "bool",
              "name": "isPublic",
              "type": "bool"
            },
            {
              "internalType": "bool",
              "name": "hasPaid",
              "type": "bool"
            },
            {
              "internalType": "bool",
              "name": "isFeatured",
              "type": "bool"
            },
            {
              "internalType": "uint256",
              "name": "createdAt",
              "type": "uint256"
            },
            {
              "internalType": "uint256",
              "name": "maxReads",
              "type": "uint256"
            }
          ],
          "internalType": "struct BlockPager.Content",
          "name": "",
          "type": "tuple"
        }
      ],
      "stateMutability": "payable",
      "type": "function"
    },
    {
      "inputs": [
        {
          "internalType": "address payable",
          "name": "recipient",
          "type": "address"
        }
      ],
      "name": "withdrawFunds",
      "outputs": [],
      "stateMutability": "nonpayable",
      "type": "function"
    }
  ],
  "bytecode": "0x608060405266470de4df820000600955670de0b6b3a7640000600a553480156200002857600080fd5b50604051806040016040528060058152602001642830b3b2b960d91b815250604051806040016040528060038152602001622823a960e91b815250816000908162000074919062000148565b50600162000083828262000148565b5050600160075550600b80546001600160a01b0319163317905562000214565b634e487b7160e01b600052604160045260246000fd5b600181811c90821680620000ce57607f821691505b602082108103620000ef57634e487b7160e01b600052602260045260246000fd5b50919050565b601f8211156200014357600081815260208120601f850160051c810160208610156200011e5750805b601f850160051c820191505b818110156200013f578281556001016200012a565b5050505b505050565b81516001600160401b03811115620001645762000164620000a3565b6200017c81620001758454620000b9565b84620000f5565b602080601f831160018114620001b457600084156200019b5750858301515b600019600386901b1c1916600185901b1785556200013f565b600085815260208120601f198616915b82811015620001e557888601518255948401946001909101908401620001c4565b5085821015620002045787850151600019600388901b60f8161c191681555b5050505050600190811b01905550565b614ced80620002246000396000f3fe6080604052600436106102675760003560e01c8063838d134111610144578063ae601d95116100b6578063e39540f71161007a578063e39540f714610742578063e985e9c514610757578063ecd07caa146107a0578063efa93586146107c0578063efb8ff0c146107d3578063f54a847c146107f357600080fd5b8063ae601d951461066d578063b88d4fde146106ba578063c87b56dd146106da578063ca77288d146106fa578063db8d55f11461071a57600080fd5b8063a22cb46511610108578063a22cb465146105c5578063a288de23146105e5578063a34d42b814610605578063a59bed5814610625578063aac14cba14610645578063ac9241731461065857600080fd5b8063838d13411461054657806386f273281461055957806395d89b411461056e5780639665ae941461058357806396d135631461059857600080fd5b8063442890d5116101dd5780636352211e116101a15780636352211e1461049c578063677696be146104bc57806368742da6146104dc57806370a08231146104fc5780637ff4059c1461051c57806381c774b31461053157600080fd5b8063442890d5146103eb578063477c1968146104095780634e43603a146104295780635cf9bf21146104645780636115ca0c1461047757600080fd5b8063095ea7b31161022f578063095ea7b31461034157806318160ddd1461036157806323b872dd14610376578063314ca0f2146103965780634181193c146103b857806342842e0e146103cb57600080fd5b806301ffc9a71461026c57806306a99298146102a157806306fdde03146102c357806307973ccf146102e5578063081812fc14610309575b600080fd5b34801561027857600080fd5b5061028c61028736600461439c565b610806565b60405190151581526020015b60405180910390f35b3480156102ad57600080fd5b506102c16102bc366004614465565b610858565b005b3480156102cf57600080fd5b506102d861090f565b60405161029891906144ea565b3480156102f157600080fd5b506102fb60155481565b604051908152602001610298565b34801561031557600080fd5b506103296103243660046144fd565b6109a1565b6040516001600160a01b039091168152602001610298565b34801561034d57600080fd5b506102c161035c36600461452b565b6109c8565b34801561036d57600080fd5b506102fb610add565b34801561038257600080fd5b506102c1610391366004614557565b610aed565b3480156103a257600080fd5b506103ab610b1e565b604051610298919061463f565b6102fb6103c636600461468e565b610cac565b3480156103d757600080fd5b506102c16103e6366004614557565b61108e565b3480156103f757600080fd5b50600b546001600160a01b0316610329565b34801561041557600080fd5b506102d86104243660046146d3565b6110a9565b34801561043557600080fd5b506104496104443660046146d3565b611147565b60408051938452602084019290925290820152606001610298565b6102c16104723660046144fd565b611212565b34801561048357600080fd5b5061048c611283565b60405161029894939291906146f0565b3480156104a857600080fd5b506103296104b73660046144fd565b61137b565b3480156104c857600080fd5b506102c16104d73660046144fd565b6113db565b3480156104e857600080fd5b506102c16104f73660046146d3565b6115ac565b34801561050857600080fd5b506102fb6105173660046146d3565b6116a1565b34801561052857600080fd5b506102d8611727565b34801561053d57600080fd5b506103ab6117a6565b6102fb61055436600461468e565b611916565b34801561056557600080fd5b506103ab611c38565b34801561057a57600080fd5b506102d8611dbf565b34801561058f57600080fd5b506103ab611dce565b3480156105a457600080fd5b506105b86105b33660046144fd565b611f55565b604051610298919061472a565b3480156105d157600080fd5b506102c16105e0366004614739565b612205565b3480156105f157600080fd5b506102c161060036600461452b565b612214565b34801561061157600080fd5b506102c16106203660046146d3565b61247b565b34801561063157600080fd5b5061048c6106403660046146d3565b612560565b6102fb61065336600461468e565b61261f565b34801561066457600080fd5b506102fb612970565b34801561067957600080fd5b5061068d6106883660046144fd565b6129be565b604080519687526020870195909552938501929092526060840152608083015260a082015260c001610298565b3480156106c657600080fd5b506102c16106d5366004614777565b612a63565b3480156106e657600080fd5b506102d86106f53660046144fd565b612a9b565b34801561070657600080fd5b506102c1610715366004614465565b612bab565b34801561072657600080fd5b50600954600a5460408051928352602083019190915201610298565b34801561074e57600080fd5b506103ab612d19565b34801561076357600080fd5b5061028c6107723660046147f7565b6001600160a01b03918216600090815260056020908152604080832093909416825291909152205460ff1690565b3480156107ac57600080fd5b5061028c6107bb3660046144fd565b612e89565b6102c16107ce3660046144fd565b612f2e565b3480156107df57600080fd5b506105b86107ee3660046144fd565b612f9f565b6105b86108013660046144fd565b6132cb565b60006001600160e01b031982166380ac58cd60e01b148061083757506001600160e01b03198216635b5e139f60e01b145b8061085257506301ffc9a760e01b6001600160e01b03198316145b92915050565b61086061364a565b60008151116108b65760405162461bcd60e51b815260206004820152601c60248201527f4e6577206163636f756e74204349442069732072657175697265642e0000000060448201526064015b60405180910390fd5b3360009081526013602052604090206003015460ff166108e85760405162461bcd60e51b81526004016108ad90614825565b33600090815260146020526040902061090182826148d7565b5061090c6001600755565b50565b60606000805461091e90614855565b80601f016020809104026020016040519081016040528092919081815260200182805461094a90614855565b80156109975780601f1061096c57610100808354040283529160200191610997565b820191906000526020600020905b81548152906001019060200180831161097a57829003601f168201915b5050505050905090565b60006109ac826136a3565b506000908152600460205260409020546001600160a01b031690565b60006109d38261137b565b9050806001600160a01b0316836001600160a01b031603610a405760405162461bcd60e51b815260206004820152602160248201527f4552433732313a20617070726f76616c20746f2063757272656e74206f776e656044820152603960f91b60648201526084016108ad565b336001600160a01b0382161480610a5c5750610a5c8133610772565b610ace5760405162461bcd60e51b815260206004820152603d60248201527f4552433732313a20617070726f76652063616c6c6572206973206e6f7420746f60448201527f6b656e206f776e6572206f7220617070726f76656420666f7220616c6c00000060648201526084016108ad565b610ad88383613702565b505050565b6000610ae860085490565b905090565b610af73382613770565b610b135760405162461bcd60e51b81526004016108ad90614997565b610ad88383836137ee565b336000908152601060205260408120546060918167ffffffffffffffff811115610b4a57610b4a6143b9565b604051908082528060200260200182016040528015610b8357816020015b610b706142bf565b815260200190600190039081610b685790505b50905060005b82811015610ca557336000908152601060205260408120805483908110610bb257610bb26149e4565b6000918252602080832090910154808352600e82526040928390208351610180810185528154815260018201546001600160a01b03908116948201949094526002820154909316938301939093526003830154606083015260048301546080830152600583015460a0830152600683015460c0830152600783015460ff808216151560e08501526101008083048216151590850152620100009091041615156101208301526008830154610140830152600990920154610160820152845191925090849084908110610c8657610c866149e4565b6020026020010181905250508080610c9d90614a10565b915050610b89565b5092915050565b6000610cb661364a565b600a543414610cfe5760405162461bcd60e51b8152602060048201526014602482015273496e73756666696369656e742062616c616e636560601b60448201526064016108ad565b60008211610d4e5760405162461bcd60e51b815260206004820181905260248201527f7072696365206d7573742062652067726561746572207468616e20302077656960448201526064016108ad565b3360009081526013602052604090206003015460ff16610d805760405162461bcd60e51b81526004016108ad90614825565b3360009081526014602052604081208054610d9a90614855565b905011610db95760405162461bcd60e51b81526004016108ad90614a29565b610dc7600880546001019055565b6000610dd260085490565b9050610dde338261395f565b610de88185613af8565b604051806101800160405280828152602001336001600160a01b0316815260200160006001600160a01b031681526020016000815260200160008152602001600081526020018481526020016001151581526020016000151581526020016001151581526020014281526020016000815250600e60008381526020019081526020016000206000820151816000015560208201518160010160006101000a8154816001600160a01b0302191690836001600160a01b0316021790555060408201518160020160006101000a8154816001600160a01b0302191690836001600160a01b03160217905550606082015181600301556080820151816004015560a0820151816005015560c0820151816006015560e08201518160070160006101000a81548160ff0219169083151502179055506101008201518160070160016101000a81548160ff0219169083151502179055506101208201518160070160026101000a81548160ff02191690831515021790555061014082015181600801556101608201518160090155905050600d819080600181540180825580915050600190039060005260206000200160009091909190915055600c81908060018154018082558091505060019003906000526020600020016000909190919091505560106000336001600160a01b03166001600160a01b03168152602001908152602001600020819080600181540180825580915050600190039060005260206000200160009091909190915055807ffa1d7be67f7664d85c98155f580b87440d9d14373a511b9525e3223a40ac70413360008660018060405161107a9594939291906001600160a01b039586168152939094166020840152604083019190915215156060820152901515608082015260a00190565b60405180910390a290506108526001600755565b610ad883838360405180602001604052806000815250612a63565b6014602052600090815260409020805481906110c490614855565b80601f01602080910402602001604051908101604052809291908181526020018280546110f090614855565b801561113d5780601f106111125761010080835404028352916020019161113d565b820191906000526020600020905b81548152906001019060200180831161112057829003601f168201915b5050505050905081565b6001600160a01b038116600090815260106020526040812054819081908180805b83811015611204576001600160a01b038816600090815260106020526040812080548390811061119a5761119a6149e4565b6000918252602080832090910154808352600e90915260409091206005810154919250906111c89086614a60565b6007820154909550610100900460ff16156111ef5760068101546111ec9085614a60565b93505b505080806111fc90614a10565b915050611168565b509196909550909350915050565b61121a61364a565b600b546001600160a01b031633146112745760405162461bcd60e51b815260206004820152601a60248201527f4f6e6c79206f776e65722063616e20757064617465206665652e00000000000060448201526064016108ad565b600a81905561090c6001600755565b336000908152601360205260408120600381015460609291829182919060ff166112bf5760405162461bcd60e51b81526004016108ad90614825565b600181015460028201546003830154835484936001600160a01b0316929160ff169084906112ec90614855565b80601f016020809104026020016040519081016040528092919081815260200182805461131890614855565b80156113655780601f1061133a57610100808354040283529160200191611365565b820191906000526020600020905b81548152906001019060200180831161134857829003601f168201915b5050505050935094509450945094505090919293565b6000818152600260205260408120546001600160a01b0316806108525760405162461bcd60e51b8152602060048201526018602482015277115490cdcc8c4e881a5b9d985b1a59081d1bdad95b88125160421b60448201526064016108ad565b6113e361364a565b336113ed8261137b565b6001600160a01b0316146114435760405162461bcd60e51b815260206004820152601e60248201527f4f6e6c79206f776e65722063616e206275726e2074686973207061676572000060448201526064016108ad565b336000908152600f60205260408120905b81548110156115085782828281548110611470576114706149e4565b9060005260206000200154036114f6578154829061149090600190614a73565b815481106114a0576114a06149e4565b90600052602060002001548282815481106114bd576114bd6149e4565b9060005260206000200181905550818054806114db576114db614a86565b60019003818190600052602060002001600090559055611508565b8061150081614a10565b915050611454565b5061151282613b8b565b6000828152600e60205260408082208281556001810180546001600160a01b031990811690915560028201805490911690556003810183905560048101839055600581018390556006810183905560078101805462ffffff19169055600881018390556009018290555183917fbe55442930fbfd3340629646e19a83533804572254ab957903a91e562c0cc2b091a25061090c6001600755565b6115b461364a565b600b546001600160a01b0316331461161c5760405162461bcd60e51b815260206004820152602560248201527f4f6e6c7920636f6e7472616374206f776e65722063616e207769746864726177604482015264206665657360d81b60648201526084016108ad565b6000471161166c5760405162461bcd60e51b815260206004820152601e60248201527f4e6f2066756e647320617661696c61626c6520746f207769746864726177000060448201526064016108ad565b6040516001600160a01b038216904780156108fc02916000818181858888f19350505050158015610901573d6000803e3d6000fd5b60006001600160a01b03821661170b5760405162461bcd60e51b815260206004820152602960248201527f4552433732313a2061646472657373207a65726f206973206e6f7420612076616044820152683634b21037bbb732b960b91b60648201526084016108ad565b506001600160a01b031660009081526003602052604090205490565b3360009081526013602052604090206003015460609060ff1661178c5760405162461bcd60e51b815260206004820152601b60248201527f55736572206163636f756e7420646f6573206e6f74206578697374000000000060448201526064016108ad565b336000908152601460205260409020805461091e90614855565b600c5460609060008167ffffffffffffffff8111156117c7576117c76143b9565b60405190808252806020026020018201604052801561180057816020015b6117ed6142bf565b8152602001906001900390816117e55790505b50905060005b82811015610ca5576000600c8281548110611823576118236149e4565b6000918252602080832090910154808352600e82526040928390208351610180810185528154815260018201546001600160a01b03908116948201949094526002820154909316938301939093526003830154606083015260048301546080830152600583015460a0830152600683015460c0830152600783015460ff808216151560e085015261010080830482161515908501526201000090910416151561012083015260088301546101408301526009909201546101608201528451919250908490849081106118f7576118f76149e4565b602002602001018190525050808061190e90614a10565b915050611806565b600061192061364a565b60095434146119685760405162461bcd60e51b8152602060048201526014602482015273496e73756666696369656e742062616c616e636560601b60448201526064016108ad565b3360009081526013602052604090206003015460ff1661199a5760405162461bcd60e51b81526004016108ad90614825565b33600090815260146020526040812080546119b490614855565b9050116119d35760405162461bcd60e51b81526004016108ad90614a29565b816000036119e057600691505b6119ee600880546001019055565b60006119f960085490565b9050611a05338261395f565b611a0f8185613af8565b604051806101800160405280828152602001336001600160a01b0316815260200160006001600160a01b031681526020016000815260200160008152602001600081526020016000815260200160001515815260200160011515815260200160001515815260200142815260200184815250600e60008381526020019081526020016000206000820151816000015560208201518160010160006101000a8154816001600160a01b0302191690836001600160a01b0316021790555060408201518160020160006101000a8154816001600160a01b0302191690836001600160a01b03160217905550606082015181600301556080820151816004015560a0820151816005015560c0820151816006015560e08201518160070160006101000a81548160ff0219169083151502179055506101008201518160070160016101000a81548160ff0219169083151502179055506101208201518160070160026101000a81548160ff02191690831515021790555061014082015181600801556101608201518160090155905050600f6000336001600160a01b03166001600160a01b03168152602001908152602001600020819080600181540180825580915050600190039060005260206000200160009091909190915055807fc60ab42824fa96cab9ab7f76a8cce9ca31d7f97fdbd97f971ee2d47a973899e33360008060405161107a939291906001600160a01b039390931683526020830191909152604082015260600190565b336000908152601160205260408120546060918167ffffffffffffffff811115611c6457611c646143b9565b604051908082528060200260200182016040528015611c9d57816020015b611c8a6142bf565b815260200190600190039081611c825790505b50905060005b82811015610ca557336000908152601160205260408120805483908110611ccc57611ccc6149e4565b6000918252602080832090910154808352600e82526040928390208351610180810185528154815260018201546001600160a01b03908116948201949094526002820154909316938301939093526003830154606083015260048301546080830152600583015460a0830152600683015460c0830152600783015460ff808216151560e08501526101008083048216151590850152620100009091041615156101208301526008830154610140830152600990920154610160820152845191925090849084908110611da057611da06149e4565b6020026020010181905250508080611db790614a10565b915050611ca3565b60606001805461091e90614855565b336000908152600f60205260408120546060918167ffffffffffffffff811115611dfa57611dfa6143b9565b604051908082528060200260200182016040528015611e3357816020015b611e206142bf565b815260200190600190039081611e185790505b50905060005b82811015610ca557336000908152600f60205260408120805483908110611e6257611e626149e4565b6000918252602080832090910154808352600e82526040928390208351610180810185528154815260018201546001600160a01b03908116948201949094526002820154909316938301939093526003830154606083015260048301546080830152600583015460a0830152600683015460c0830152600783015460ff808216151560e08501526101008083048216151590850152620100009091041615156101208301526008830154610140830152600990920154610160820152845191925090849084908110611f3657611f366149e4565b6020026020010181905250508080611f4d90614a10565b915050611e39565b611f5d6142bf565b611f6561364a565b6000828152600e60205260409020600781015460ff16611fbc5760405162461bcd60e51b81526020600482015260126024820152714974656d206973206e6f74207075626c696360701b60448201526064016108ad565b60018101546001600160a01b031633036120765760408051610180810182528254815260018301546001600160a01b039081166020830152600284015416918101919091526003820154606082015260048201546080820152600582015460a0820152600682015460c0820152600782015460ff808216151560e0840152610100808304821615159084015262010000909104161515610120820152600882015461014082015260099091015461016082015290506121f6565b60005b60008481526012602052604090205481101561219a5760008481526012602052604090208054829081106120af576120af6149e4565b6000918252602090912001546001600160a01b03163303612188576005820180549060006120dc83614a10565b909155505060408051610180810182528354815260018401546001600160a01b039081166020830152600285015416918101919091526003830154606082015260048301546080820152600583015460a0820152600683015460c0820152600783015460ff808216151560e084015261010080830482161515908401526201000090910416151561012082015260088301546101408201526009909201546101608301525090506121f6565b8061219281614a10565b915050612079565b5060405162461bcd60e51b815260206004820152602a60248201527f566965776572206973206e6f7420617574686f72697a656420746f20766965776044820152692074686973206974656d60b01b60648201526084016108ad565b6122006001600755565b919050565b612210338383613bcb565b5050565b61221c61364a565b336122268261137b565b6001600160a01b03161461227c5760405162461bcd60e51b815260206004820152601d60248201527f4f6e6c79206f776e65722063616e207472616e7366657220706167657200000060448201526064016108ad565b6000818152600e6020526040902060030154156122e55760405162461bcd60e51b815260206004820152602160248201527f506167657220616c7265616479206265656e207472616e7366657272656428316044820152602960f81b60648201526084016108ad565b61230033838360405180602001604052806000815250613c99565b336000908152600f60205260408120905b81548110156123c5578282828154811061232d5761232d6149e4565b9060005260206000200154036123b3578154829061234d90600190614a73565b8154811061235d5761235d6149e4565b906000526020600020015482828154811061237a5761237a6149e4565b90600052602060002001819055508180548061239857612398614a86565b600190038181906000526020600020016000905590556123c5565b806123bd81614a10565b915050612311565b506001600160a01b0383166000818152600f6020908152604080832080546001818101835591855283852001879055868452600e909252822080820180546001600160a01b03191690941790935560039092018054909190612428908490614a60565b9091555050604080513381526001600160a01b038516602082015283917fe963106fc8dc28fa530812384adf398de69324919f97af64a67815f642dc4316910160405180910390a2506122106001600755565b600b546001600160a01b031633146124e85760405162461bcd60e51b815260206004820152602a60248201527f4f6e6c79207468652063757272656e74206f776e65722063616e207365742061604482015269103732bb9037bbb732b960b11b60648201526084016108ad565b6001600160a01b03811661253e5760405162461bcd60e51b815260206004820152601960248201527f496e76616c6964206e6577206f776e657220616464726573730000000000000060448201526064016108ad565b600b80546001600160a01b0319166001600160a01b0392909216919091179055565b60136020526000908152604090208054819061257b90614855565b80601f01602080910402602001604051908101604052809291908181526020018280546125a790614855565b80156125f45780601f106125c9576101008083540402835291602001916125f4565b820191906000526020600020905b8154815290600101906020018083116125d757829003601f168201915b505050506001830154600284015460039094015492936001600160a01b039091169290915060ff1684565b600061262961364a565b600082116126795760405162461bcd60e51b815260206004820181905260248201527f7072696365206d7573742062652067726561746572207468616e20302077656960448201526064016108ad565b3360009081526013602052604090206003015460ff166126ab5760405162461bcd60e51b81526004016108ad90614825565b33600090815260146020526040812080546126c590614855565b9050116126e45760405162461bcd60e51b81526004016108ad90614a29565b6126f2600880546001019055565b60006126fd60085490565b9050612709338261395f565b6127138185613af8565b604051806101800160405280828152602001336001600160a01b0316815260200160006001600160a01b031681526020016000815260200160008152602001600081526020018481526020016001151581526020016000151581526020016000151581526020014281526020016000815250600e60008381526020019081526020016000206000820151816000015560208201518160010160006101000a8154816001600160a01b0302191690836001600160a01b0316021790555060408201518160020160006101000a8154816001600160a01b0302191690836001600160a01b03160217905550606082015181600301556080820151816004015560a0820151816005015560c0820151816006015560e08201518160070160006101000a81548160ff0219169083151502179055506101008201518160070160016101000a81548160ff0219169083151502179055506101208201518160070160026101000a81548160ff02191690831515021790555061014082015181600801556101608201518160090155905050600d81908060018154018082558091505060019003906000526020600020016000909190919091505560106000336001600160a01b03166001600160a01b03168152602001908152602001600020819080600181540180825580915050600190039060005260206000200160009091909190915055807f35a86342264ba9cf886ce6d3d085ea3462b919c3fb9bc9f236d3b57e7cbd2c3f33600086600160405161107a94939291906001600160a01b0394851681529290931660208301526040820152901515606082015260800190565b60008060015b60085481116129b8576000818152600e602052604090206007015460ff166129a657816129a281614a10565b9250505b806129b081614a10565b915050612976565b50919050565b6000806000806000806129e8876000908152600260205260409020546001600160a01b0316151590565b612a345760405162461bcd60e51b815260206004820152601760248201527f546f6b656e20494420646f6573206e6f7420657869737400000000000000000060448201526064016108ad565b6000878152600e6020526040902060080154612a4f90613ccc565b949c939b5091995097509550909350915050565b612a6d3383613770565b612a895760405162461bcd60e51b81526004016108ad90614997565b612a9584848484613c99565b50505050565b6060612aa6826136a3565b60008281526006602052604081208054612abf90614855565b80601f0160208091040260200160405190810160405280929190818152602001828054612aeb90614855565b8015612b385780601f10612b0d57610100808354040283529160200191612b38565b820191906000526020600020905b815481529060010190602001808311612b1b57829003601f168201915b505050505090506000612b5660408051602081019091526000815290565b90508051600003612b68575092915050565b815115612b9a578082604051602001612b82929190614a9c565b60405160208183030381529060405292505050919050565b612ba384613d40565b949350505050565b612bb361364a565b6000815111612c045760405162461bcd60e51b815260206004820152601c60248201527f4e6577206163636f756e74204349442069732072657175697265642e0000000060448201526064016108ad565b3360009081526013602052604090206003015460ff1615612c3e57336000908152601360205260409020612c3882826148d7565b50612d0f565b336000908152601360205260409020612c5782826148d7565b506040518060800160405280828152602001336001600160a01b031681526020016015546001612c879190614a60565b8152600160209182015233600090815260139091526040902081518190612cae90826148d7565b5060208201516001820180546001600160a01b0319166001600160a01b03909216919091179055604082015160028201556060909101516003909101805460ff191691151591909117905560158054906000612d0983614a10565b91905055505b61090c6001600755565b600d5460609060008167ffffffffffffffff811115612d3a57612d3a6143b9565b604051908082528060200260200182016040528015612d7357816020015b612d606142bf565b815260200190600190039081612d585790505b50905060005b82811015610ca5576000600d8281548110612d9657612d966149e4565b6000918252602080832090910154808352600e82526040928390208351610180810185528154815260018201546001600160a01b03908116948201949094526002820154909316938301939093526003830154606083015260048301546080830152600583015460a0830152600683015460c0830152600783015460ff808216151560e08501526101008083048216151590850152620100009091041615156101208301526008830154610140830152600990920154610160820152845191925090849084908110612e6a57612e6a6149e4565b6020026020010181905250508080612e8190614a10565b915050612d79565b6000818152600e6020526040812060018101546001600160a01b03163303612eb45750600192915050565b60005b600084815260126020526040902054811015612f24576000848152601260205260409020805482908110612eed57612eed6149e4565b6000918252602090912001546001600160a01b03163303612f12575060019392505050565b80612f1c81614a10565b915050612eb7565b5060009392505050565b612f3661364a565b600b546001600160a01b03163314612f905760405162461bcd60e51b815260206004820152601a60248201527f4f6e6c79206f776e65722063616e20757064617465206665652e00000000000060448201526064016108ad565b600981905561090c6001600755565b612fa76142bf565b612faf61364a565b6000828152600e6020526040902033612fc78461137b565b6001600160a01b03161461301d5760405162461bcd60e51b815260206004820152601e60248201527f4f6e6c79206f776e65722063616e20726561642074686973207061676572000060448201526064016108ad565b806009015481600401541061306c5760405162461bcd60e51b815260206004820152601560248201527413585e1a5b5d5b481c9958591cc81c995858da1959605a1b60448201526064016108ad565b60018160040160008282546130819190614a60565b909155505060405183907f119df89ad369ffd103f76b00491dcfa6b5ae8d7462f03864a03bf98dee6fff0f90600090a2806009015481600401540361322057336000908152600f60205260408120905b815481101561318557848282815481106130ed576130ed6149e4565b906000526020600020015403613173578154829061310d90600190614a73565b8154811061311d5761311d6149e4565b906000526020600020015482828154811061313a5761313a6149e4565b90600052602060002001819055508180548061315857613158614a86565b60019003818190600052602060002001600090559055613185565b8061317d81614a10565b9150506130d1565b5061318f84613b8b565b6000848152600e60205260408082208281556001810180546001600160a01b031990811690915560028201805490911690556003810183905560048101839055600581018390556006810183905560078101805462ffffff19169055600881018390556009018290555185917fbe55442930fbfd3340629646e19a83533804572254ab957903a91e562c0cc2b091a2505b60408051610180810182528254815260018301546001600160a01b039081166020830152600284015416918101919091526003820154606082015260048201546080820152600582015460a0820152600682015460c0820152600782015460ff808216151560e0840152610100808304821615159084015262010000909104161515610120820152600882015461014082015260099091015461016082015290506122006001600755565b6132d36142bf565b6132db61364a565b6000828152600e60205260409020600781015460ff166133325760405162461bcd60e51b81526020600482015260126024820152714974656d206973206e6f74207075626c696360701b60448201526064016108ad565b60018101546001600160a01b031633036133a15760405162461bcd60e51b815260206004820152602a60248201527f43726561746f722063616e6e6f742070617920746f20766965772074686569726044820152691037bbb71034ba32b69760b11b60648201526084016108ad565b60005b6000848152601260205260409020548110156134625760008481526012602052604090208054829081106133da576133da6149e4565b6000918252602090912001546001600160a01b031633036134505760405162461bcd60e51b815260206004820152602a60248201527f5669657765722068617320616c7265616479207061696420746f2076696577206044820152693a3434b99034ba32b69760b11b60648201526084016108ad565b8061345a81614a10565b9150506133a4565b50806006015434146134b65760405162461bcd60e51b815260206004820152601960248201527f496e636f7272656374207061796d656e7420616d6f756e742e0000000000000060448201526064016108ad565b600060648260060154605d6134cb9190614acb565b6134d59190614af8565b60018301546040519192506001600160a01b03169082156108fc029083906000818181858888f19350505050158015613512573d6000803e3d6000fd5b5060078201805461ff0019166101001790556002820180546001600160a01b0319163317905560058201805490600061354a83614a10565b90915550505060008381526012602090815260408083208054600181810183559185528385200180546001600160a01b03191633908117909155845260118352818420805480830182559085529383902090930186905580516101808101825284548152928401546001600160a01b03908116928401929092526002840154909116908201526003820154606082015260048201546080820152600582015460a0820152600682015460c0820152600782015460ff808216151560e0840152610100808304821615159084015262010000909104161515610120820152600882015461014082015260099091015461016082015290506122006001600755565b60026007540361369c5760405162461bcd60e51b815260206004820152601f60248201527f5265656e7472616e637947756172643a207265656e7472616e742063616c6c0060448201526064016108ad565b6002600755565b6000818152600260205260409020546001600160a01b031661090c5760405162461bcd60e51b8152602060048201526018602482015277115490cdcc8c4e881a5b9d985b1a59081d1bdad95b88125160421b60448201526064016108ad565b600081815260046020526040902080546001600160a01b0319166001600160a01b03841690811790915581906137378261137b565b6001600160a01b03167f8c5be1e5ebec7d5bd14f71427d1e84f3dd0314c0f7b2291e5b200ac8c7c3b92560405160405180910390a45050565b60008061377c8361137b565b9050806001600160a01b0316846001600160a01b031614806137c357506001600160a01b0380821660009081526005602090815260408083209388168352929052205460ff165b80612ba35750836001600160a01b03166137dc846109a1565b6001600160a01b031614949350505050565b826001600160a01b03166138018261137b565b6001600160a01b0316146138275760405162461bcd60e51b81526004016108ad90614b0c565b6001600160a01b0382166138895760405162461bcd60e51b8152602060048201526024808201527f4552433732313a207472616e7366657220746f20746865207a65726f206164646044820152637265737360e01b60648201526084016108ad565b6138968383836001613db4565b826001600160a01b03166138a98261137b565b6001600160a01b0316146138cf5760405162461bcd60e51b81526004016108ad90614b0c565b600081815260046020908152604080832080546001600160a01b03199081169091556001600160a01b0387811680865260038552838620805460001901905590871680865283862080546001019055868652600290945282852080549092168417909155905184937fddf252ad1be2c89b69c2b068fc378daa952ba7f163c4a11628f55a4df523b3ef91a4505050565b6001600160a01b0382166139b55760405162461bcd60e51b815260206004820181905260248201527f4552433732313a206d696e7420746f20746865207a65726f206164647265737360448201526064016108ad565b6000818152600260205260409020546001600160a01b031615613a1a5760405162461bcd60e51b815260206004820152601c60248201527f4552433732313a20746f6b656e20616c7265616479206d696e7465640000000060448201526064016108ad565b613a28600083836001613db4565b6000818152600260205260409020546001600160a01b031615613a8d5760405162461bcd60e51b815260206004820152601c60248201527f4552433732313a20746f6b656e20616c7265616479206d696e7465640000000060448201526064016108ad565b6001600160a01b038216600081815260036020908152604080832080546001019055848352600290915280822080546001600160a01b0319168417905551839291907fddf252ad1be2c89b69c2b068fc378daa952ba7f163c4a11628f55a4df523b3ef908290a45050565b6000828152600260205260409020546001600160a01b0316613b735760405162461bcd60e51b815260206004820152602e60248201527f45524337323155524953746f726167653a2055524920736574206f66206e6f6e60448201526d32bc34b9ba32b73a103a37b5b2b760911b60648201526084016108ad565b6000828152600660205260409020610ad882826148d7565b613b9481613e3c565b60008181526006602052604090208054613bad90614855565b15905061090c57600081815260066020526040812061090c91614338565b816001600160a01b0316836001600160a01b031603613c2c5760405162461bcd60e51b815260206004820152601960248201527f4552433732313a20617070726f766520746f2063616c6c65720000000000000060448201526064016108ad565b6001600160a01b03838116600081815260056020908152604080832094871680845294825291829020805460ff191686151590811790915591519182527f17307eab39ab6107e8899845ad3d59bd9653f200f220920489ca2b5937696c31910160405180910390a3505050565b613ca48484846137ee565b613cb084848484613edf565b612a955760405162461bcd60e51b81526004016108ad90614b51565b60008080808080613ce8613ce36201518089614af8565b613fe0565b919750955093506000613cfe6201518089614ba3565b9050613d0c610e1082614af8565b9350613d1a610e1082614ba3565b9050613d27603c82614af8565b9250613d34603c82614ba3565b91505091939550919395565b6060613d4b826136a3565b6000613d6260408051602081019091526000815290565b90506000815111613d825760405180602001604052806000815250613dad565b80613d8c84614154565b604051602001613d9d929190614a9c565b6040516020818303038152906040525b9392505050565b6001811115612a95576001600160a01b03841615613dfa576001600160a01b03841660009081526003602052604081208054839290613df4908490614a73565b90915550505b6001600160a01b03831615612a95576001600160a01b03831660009081526003602052604081208054839290613e31908490614a60565b909155505050505050565b6000613e478261137b565b9050613e57816000846001613db4565b613e608261137b565b600083815260046020908152604080832080546001600160a01b03199081169091556001600160a01b0385168085526003845282852080546000190190558785526002909352818420805490911690555192935084927fddf252ad1be2c89b69c2b068fc378daa952ba7f163c4a11628f55a4df523b3ef908390a45050565b60006001600160a01b0384163b15613fd557604051630a85bd0160e11b81526001600160a01b0385169063150b7a0290613f23903390899088908890600401614bb7565b6020604051808303816000875af1925050508015613f5e575060408051601f3d908101601f19168201909252613f5b91810190614bf4565b60015b613fbb573d808015613f8c576040519150601f19603f3d011682016040523d82523d6000602084013e613f91565b606091505b508051600003613fb35760405162461bcd60e51b81526004016108ad90614b51565b805181602001fd5b6001600160e01b031916630a85bd0160e11b149050612ba3565b506001949350505050565b60008080838162253d8c613ff78362010bd9614c11565b6140019190614c11565b9050600062023ab1614014836004614c39565b61401e9190614c69565b9050600461402f8262023ab1614c39565b61403a906003614c11565b6140449190614c69565b61404e9083614c97565b9150600062164b09614061846001614c11565b61406d90610fa0614c39565b6140779190614c69565b90506004614087826105b5614c39565b6140919190614c69565b61409b9084614c97565b6140a690601f614c11565b9250600061098f6140b8856050614c39565b6140c29190614c69565b9050600060506140d48361098f614c39565b6140de9190614c69565b6140e89086614c97565b90506140f5600b83614c69565b945061410285600c614c39565b61410d836002614c11565b6141179190614c97565b91508483614126603187614c97565b614131906064614c39565b61413b9190614c11565b6141459190614c11565b9a919950975095505050505050565b60606000614161836141e7565b600101905060008167ffffffffffffffff811115614181576141816143b9565b6040519080825280601f01601f1916602001820160405280156141ab576020820181803683370190505b5090508181016020015b600019016f181899199a1a9b1b9c1cb0b131b232b360811b600a86061a8153600a85049450846141b557509392505050565b60008072184f03e93ff9f4daa797ed6e38ed64bf6a1f0160401b83106142265772184f03e93ff9f4daa797ed6e38ed64bf6a1f0160401b830492506040015b6d04ee2d6d415b85acef81000000008310614252576d04ee2d6d415b85acef8100000000830492506020015b662386f26fc10000831061427057662386f26fc10000830492506010015b6305f5e1008310614288576305f5e100830492506008015b612710831061429c57612710830492506004015b606483106142ae576064830492506002015b600a83106108525760010192915050565b6040518061018001604052806000815260200160006001600160a01b0316815260200160006001600160a01b031681526020016000815260200160008152602001600081526020016000815260200160001515815260200160001515815260200160001515815260200160008152602001600081525090565b50805461434490614855565b6000825580601f10614354575050565b601f01602090049060005260206000209081019061090c91905b80821115614382576000815560010161436e565b5090565b6001600160e01b03198116811461090c57600080fd5b6000602082840312156143ae57600080fd5b8135613dad81614386565b634e487b7160e01b600052604160045260246000fd5b600067ffffffffffffffff808411156143ea576143ea6143b9565b604051601f8501601f19908116603f01168101908282118183101715614412576144126143b9565b8160405280935085815286868601111561442b57600080fd5b858560208301376000602087830101525050509392505050565b600082601f83011261445657600080fd5b613dad838335602085016143cf565b60006020828403121561447757600080fd5b813567ffffffffffffffff81111561448e57600080fd5b612ba384828501614445565b60005b838110156144b557818101518382015260200161449d565b50506000910152565b600081518084526144d681602086016020860161449a565b601f01601f19169290920160200192915050565b602081526000613dad60208301846144be565b60006020828403121561450f57600080fd5b5035919050565b6001600160a01b038116811461090c57600080fd5b6000806040838503121561453e57600080fd5b823561454981614516565b946020939093013593505050565b60008060006060848603121561456c57600080fd5b833561457781614516565b9250602084013561458781614516565b929592945050506040919091013590565b8051825260208101516145b660208401826001600160a01b03169052565b5060408101516145d160408401826001600160a01b03169052565b50606081015160608301526080810151608083015260a081015160a083015260c081015160c083015260e081015161460d60e084018215159052565b506101008181015115159083015261012080820151151590830152610140808201519083015261016090810151910152565b6020808252825182820181905260009190848201906040850190845b818110156146825761466e838551614598565b92840192610180929092019160010161465b565b50909695505050505050565b600080604083850312156146a157600080fd5b823567ffffffffffffffff8111156146b857600080fd5b6146c485828601614445565b95602094909401359450505050565b6000602082840312156146e557600080fd5b8135613dad81614516565b60808152600061470360808301876144be565b6001600160a01b039590951660208301525060408101929092521515606090910152919050565b61018081016108528284614598565b6000806040838503121561474c57600080fd5b823561475781614516565b91506020830135801515811461476c57600080fd5b809150509250929050565b6000806000806080858703121561478d57600080fd5b843561479881614516565b935060208501356147a881614516565b925060408501359150606085013567ffffffffffffffff8111156147cb57600080fd5b8501601f810187136147dc57600080fd5b6147eb878235602084016143cf565b91505092959194509250565b6000806040838503121561480a57600080fd5b823561481581614516565b9150602083013561476c81614516565b6020808252601690820152751058d8dbdd5b9d08191bd95cc81b9bdd08195e1a5cdd60521b604082015260600190565b600181811c9082168061486957607f821691505b6020821081036129b857634e487b7160e01b600052602260045260246000fd5b601f821115610ad857600081815260208120601f850160051c810160208610156148b05750805b601f850160051c820191505b818110156148cf578281556001016148bc565b505050505050565b815167ffffffffffffffff8111156148f1576148f16143b9565b614905816148ff8454614855565b84614889565b602080601f83116001811461493a57600084156149225750858301515b600019600386901b1c1916600185901b1785556148cf565b600085815260208120601f198616915b828110156149695788860151825594840194600190910190840161494a565b50858210156149875787850151600019600388901b60f8161c191681555b5050505050600190811b01905550565b6020808252602d908201527f4552433732313a2063616c6c6572206973206e6f7420746f6b656e206f776e6560408201526c1c881bdc88185c1c1c9bdd9959609a1b606082015260800190565b634e487b7160e01b600052603260045260246000fd5b634e487b7160e01b600052601160045260246000fd5b600060018201614a2257614a226149fa565b5060010190565b6020808252601a908201527f596f75722050726f66696c6520697320696e636f6d706c657465000000000000604082015260600190565b80820180821115610852576108526149fa565b81810381811115610852576108526149fa565b634e487b7160e01b600052603160045260246000fd5b60008351614aae81846020880161449a565b835190830190614ac281836020880161449a565b01949350505050565b8082028115828204841417610852576108526149fa565b634e487b7160e01b600052601260045260246000fd5b600082614b0757614b07614ae2565b500490565b60208082526025908201527f4552433732313a207472616e736665722066726f6d20696e636f72726563742060408201526437bbb732b960d91b606082015260800190565b60208082526032908201527f4552433732313a207472616e7366657220746f206e6f6e20455243373231526560408201527131b2b4bb32b91034b6b83632b6b2b73a32b960711b606082015260800190565b600082614bb257614bb2614ae2565b500690565b6001600160a01b0385811682528416602082015260408101839052608060608201819052600090614bea908301846144be565b9695505050505050565b600060208284031215614c0657600080fd5b8151613dad81614386565b8082018281126000831280158216821582161715614c3157614c316149fa565b505092915050565b80820260008212600160ff1b84141615614c5557614c556149fa565b8181058314821517610852576108526149fa565b600082614c7857614c78614ae2565b600160ff1b821460001984141615614c9257614c926149fa565b500590565b8181036000831280158383131683831282161715610ca557610ca56149fa56fea2646970667358221220c09e9883c36dc12d26fb852f2a9e62d9d07bcb66fae55dd0bd3c56fba8ce45da64736f6c63430008110033",
  "linkReferences": {},
  "deployedLinkReferences": {}
}