{
  "_format": "hh-sol-artifact-1",
  "contractName": "BlockPager",
  "sourceName": "contracts/BlockPager.sol",
  "abi": [
    {
      "inputs": [],
      "stateMutability": "nonpayable",
      "type": "constructor"
    },
    {
      "anonymous": false,
      "inputs": [
        {
          "indexed": true,
          "internalType": "address",
          "name": "owner",
          "type": "address"
        },
        {
          "indexed": true,
          "internalType": "address",
          "name": "approved",
          "type": "address"
        },
        {
          "indexed": true,
          "internalType": "uint256",
          "name": "tokenId",
          "type": "uint256"
        }
      ],
      "name": "Approval",
      "type": "event"
    },
    {
      "anonymous": false,
      "inputs": [
        {
          "indexed": true,
          "internalType": "address",
          "name": "owner",
          "type": "address"
        },
        {
          "indexed": true,
          "internalType": "address",
          "name": "operator",
          "type": "address"
        },
        {
          "indexed": false,
          "internalType": "bool",
          "name": "approved",
          "type": "bool"
        }
      ],
      "name": "ApprovalForAll",
      "type": "event"
    },
    {
      "anonymous": false,
      "inputs": [
        {
          "indexed": true,
          "internalType": "uint256",
          "name": "tokenId",
          "type": "uint256"
        }
      ],
      "name": "ContentBurned",
      "type": "event"
    },
    {
      "anonymous": false,
      "inputs": [
        {
          "indexed": true,
          "internalType": "uint256",
          "name": "tokenId",
          "type": "uint256"
        }
      ],
      "name": "ContentRead",
      "type": "event"
    },
    {
      "anonymous": false,
      "inputs": [
        {
          "indexed": false,
          "internalType": "address",
          "name": "from",
          "type": "address"
        },
        {
          "indexed": false,
          "internalType": "address",
          "name": "receiver",
          "type": "address"
        },
        {
          "indexed": true,
          "internalType": "uint256",
          "name": "tokenId",
          "type": "uint256"
        }
      ],
      "name": "ContentTransferred",
      "type": "event"
    },
    {
      "anonymous": false,
      "inputs": [
        {
          "indexed": true,
          "internalType": "uint256",
          "name": "tokenId",
          "type": "uint256"
        },
        {
          "indexed": false,
          "internalType": "address",
          "name": "creator",
          "type": "address"
        },
        {
          "indexed": false,
          "internalType": "address",
          "name": "viewer",
          "type": "address"
        },
        {
          "indexed": false,
          "internalType": "uint256",
          "name": "price",
          "type": "uint256"
        },
        {
          "indexed": false,
          "internalType": "bool",
          "name": "isPublic",
          "type": "bool"
        },
        {
          "indexed": false,
          "internalType": "bool",
          "name": "isFeatured",
          "type": "bool"
        }
      ],
      "name": "FeaturedItemCreated",
      "type": "event"
    },
    {
      "anonymous": false,
      "inputs": [
        {
          "indexed": true,
          "internalType": "uint256",
          "name": "tokenId",
          "type": "uint256"
        },
        {
          "indexed": false,
          "internalType": "address",
          "name": "creator",
          "type": "address"
        },
        {
          "indexed": false,
          "internalType": "uint256",
          "name": "numTransfers",
          "type": "uint256"
        },
        {
          "indexed": false,
          "internalType": "uint256",
          "name": "numReads",
          "type": "uint256"
        }
      ],
      "name": "PersonalContentCreated",
      "type": "event"
    },
    {
      "anonymous": false,
      "inputs": [
        {
          "indexed": true,
          "internalType": "uint256",
          "name": "tokenId",
          "type": "uint256"
        },
        {
          "indexed": false,
          "internalType": "address",
          "name": "creator",
          "type": "address"
        },
        {
          "indexed": false,
          "internalType": "address",
          "name": "viewer",
          "type": "address"
        },
        {
          "indexed": false,
          "internalType": "uint256",
          "name": "price",
          "type": "uint256"
        },
        {
          "indexed": false,
          "internalType": "bool",
          "name": "isPublic",
          "type": "bool"
        }
      ],
      "name": "PublicItemCreated",
      "type": "event"
    },
    {
      "anonymous": false,
      "inputs": [
        {
          "indexed": true,
          "internalType": "uint256",
          "name": "tokenId",
          "type": "uint256"
        },
        {
          "indexed": false,
          "internalType": "address",
          "name": "viewer",
          "type": "address"
        },
        {
          "indexed": false,
          "internalType": "uint256",
          "name": "price",
          "type": "uint256"
        },
        {
          "indexed": false,
          "internalType": "bool",
          "name": "hasPaid",
          "type": "bool"
        }
      ],
      "name": "PublicItemViewed",
      "type": "event"
    },
    {
      "anonymous": false,
      "inputs": [
        {
          "indexed": true,
          "internalType": "address",
          "name": "from",
          "type": "address"
        },
        {
          "indexed": true,
          "internalType": "address",
          "name": "to",
          "type": "address"
        },
        {
          "indexed": true,
          "internalType": "uint256",
          "name": "tokenId",
          "type": "uint256"
        }
      ],
      "name": "Transfer",
      "type": "event"
    },
    {
      "inputs": [
        {
          "internalType": "address",
          "name": "",
          "type": "address"
        }
      ],
      "name": "_accounts",
      "outputs": [
        {
          "internalType": "string",
          "name": "accountCID",
          "type": "string"
        },
        {
          "internalType": "address",
          "name": "userWallet",
          "type": "address"
        },
        {
          "internalType": "uint256",
          "name": "userIdNum",
          "type": "uint256"
        },
        {
          "internalType": "bool",
          "name": "exists",
          "type": "bool"
        }
      ],
      "stateMutability": "view",
      "type": "function"
    },
    {
      "inputs": [
        {
          "internalType": "address",
          "name": "",
          "type": "address"
        }
      ],
      "name": "_picture",
      "outputs": [
        {
          "internalType": "string",
          "name": "pictureCID",
          "type": "string"
        }
      ],
      "stateMutability": "view",
      "type": "function"
    },
    {
      "inputs": [
        {
          "internalType": "address",
          "name": "to",
          "type": "address"
        },
        {
          "internalType": "uint256",
          "name": "tokenId",
          "type": "uint256"
        }
      ],
      "name": "approve",
      "outputs": [],
      "stateMutability": "nonpayable",
      "type": "function"
    },
    {
      "inputs": [
        {
          "internalType": "address",
          "name": "owner",
          "type": "address"
        }
      ],
      "name": "balanceOf",
      "outputs": [
        {
          "internalType": "uint256",
          "name": "",
          "type": "uint256"
        }
      ],
      "stateMutability": "view",
      "type": "function"
    },
    {
      "inputs": [
        {
          "internalType": "uint256",
          "name": "tokenId",
          "type": "uint256"
        }
      ],
      "name": "burnContent",
      "outputs": [],
      "stateMutability": "nonpayable",
      "type": "function"
    },
    {
      "inputs": [
        {
          "internalType": "string",
          "name": "tokenURI",
          "type": "string"
        },
        {
          "internalType": "uint256",
          "name": "price",
          "type": "uint256"
        }
      ],
      "name": "createFeaturedItem",
      "outputs": [
        {
          "internalType": "uint256",
          "name": "",
          "type": "uint256"
        }
      ],
      "stateMutability": "payable",
      "type": "function"
    },
    {
      "inputs": [
        {
          "internalType": "string",
          "name": "newAccountCID",
          "type": "string"
        }
      ],
      "name": "createOrUpdateAccount",
      "outputs": [],
      "stateMutability": "nonpayable",
      "type": "function"
    },
    {
      "inputs": [
        {
          "internalType": "string",
          "name": "tokenURI",
          "type": "string"
        }
      ],
      "name": "createPrivateContent",
      "outputs": [
        {
          "internalType": "uint256",
          "name": "",
          "type": "uint256"
        }
      ],
      "stateMutability": "payable",
      "type": "function"
    },
    {
      "inputs": [
        {
          "internalType": "string",
          "name": "tokenURI",
          "type": "string"
        },
        {
          "internalType": "uint256",
          "name": "price",
          "type": "uint256"
        }
      ],
      "name": "createPublicItem",
      "outputs": [
        {
          "internalType": "uint256",
          "name": "",
          "type": "uint256"
        }
      ],
      "stateMutability": "payable",
      "type": "function"
    },
    {
      "inputs": [],
      "name": "fetchAllContents",
      "outputs": [
        {
          "components": [
            {
              "internalType": "uint256",
              "name": "tokenId",
              "type": "uint256"
            },
            {
              "internalType": "address payable",
              "name": "creator",
              "type": "address"
            },
            {
              "internalType": "address payable",
              "name": "viewer",
              "type": "address"
            },
            {
              "internalType": "uint256",
              "name": "numTransfers",
              "type": "uint256"
            },
            {
              "internalType": "uint256",
              "name": "numReads",
              "type": "uint256"
            },
            {
              "internalType": "uint256",
              "name": "numViews",
              "type": "uint256"
            },
            {
              "internalType": "uint256",
              "name": "price",
              "type": "uint256"
            },
            {
              "internalType": "bool",
              "name": "isPublic",
              "type": "bool"
            },
            {
              "internalType": "bool",
              "name": "hasPaid",
              "type": "bool"
            },
            {
              "internalType": "bool",
              "name": "isFeatured",
              "type": "bool"
            },
            {
              "internalType": "uint256",
              "name": "createdAt",
              "type": "uint256"
            }
          ],
          "internalType": "struct BlockPager.Content[]",
          "name": "",
          "type": "tuple[]"
        }
      ],
      "stateMutability": "view",
      "type": "function"
    },
    {
      "inputs": [],
      "name": "fetchFeaturedItems",
      "outputs": [
        {
          "components": [
            {
              "internalType": "uint256",
              "name": "tokenId",
              "type": "uint256"
            },
            {
              "internalType": "address payable",
              "name": "creator",
              "type": "address"
            },
            {
              "internalType": "address payable",
              "name": "viewer",
              "type": "address"
            },
            {
              "internalType": "uint256",
              "name": "numTransfers",
              "type": "uint256"
            },
            {
              "internalType": "uint256",
              "name": "numReads",
              "type": "uint256"
            },
            {
              "internalType": "uint256",
              "name": "numViews",
              "type": "uint256"
            },
            {
              "internalType": "uint256",
              "name": "price",
              "type": "uint256"
            },
            {
              "internalType": "bool",
              "name": "isPublic",
              "type": "bool"
            },
            {
              "internalType": "bool",
              "name": "hasPaid",
              "type": "bool"
            },
            {
              "internalType": "bool",
              "name": "isFeatured",
              "type": "bool"
            },
            {
              "internalType": "uint256",
              "name": "createdAt",
              "type": "uint256"
            }
          ],
          "internalType": "struct BlockPager.Content[]",
          "name": "",
          "type": "tuple[]"
        }
      ],
      "stateMutability": "view",
      "type": "function"
    },
    {
      "inputs": [],
      "name": "fetchMyPublishedItems",
      "outputs": [
        {
          "components": [
            {
              "internalType": "uint256",
              "name": "tokenId",
              "type": "uint256"
            },
            {
              "internalType": "address payable",
              "name": "creator",
              "type": "address"
            },
            {
              "internalType": "address payable",
              "name": "viewer",
              "type": "address"
            },
            {
              "internalType": "uint256",
              "name": "numTransfers",
              "type": "uint256"
            },
            {
              "internalType": "uint256",
              "name": "numReads",
              "type": "uint256"
            },
            {
              "internalType": "uint256",
              "name": "numViews",
              "type": "uint256"
            },
            {
              "internalType": "uint256",
              "name": "price",
              "type": "uint256"
            },
            {
              "internalType": "bool",
              "name": "isPublic",
              "type": "bool"
            },
            {
              "internalType": "bool",
              "name": "hasPaid",
              "type": "bool"
            },
            {
              "internalType": "bool",
              "name": "isFeatured",
              "type": "bool"
            },
            {
              "internalType": "uint256",
              "name": "createdAt",
              "type": "uint256"
            }
          ],
          "internalType": "struct BlockPager.Content[]",
          "name": "",
          "type": "tuple[]"
        }
      ],
      "stateMutability": "view",
      "type": "function"
    },
    {
      "inputs": [],
      "name": "fetchPaidItems",
      "outputs": [
        {
          "components": [
            {
              "internalType": "uint256",
              "name": "tokenId",
              "type": "uint256"
            },
            {
              "internalType": "address payable",
              "name": "creator",
              "type": "address"
            },
            {
              "internalType": "address payable",
              "name": "viewer",
              "type": "address"
            },
            {
              "internalType": "uint256",
              "name": "numTransfers",
              "type": "uint256"
            },
            {
              "internalType": "uint256",
              "name": "numReads",
              "type": "uint256"
            },
            {
              "internalType": "uint256",
              "name": "numViews",
              "type": "uint256"
            },
            {
              "internalType": "uint256",
              "name": "price",
              "type": "uint256"
            },
            {
              "internalType": "bool",
              "name": "isPublic",
              "type": "bool"
            },
            {
              "internalType": "bool",
              "name": "hasPaid",
              "type": "bool"
            },
            {
              "internalType": "bool",
              "name": "isFeatured",
              "type": "bool"
            },
            {
              "internalType": "uint256",
              "name": "createdAt",
              "type": "uint256"
            }
          ],
          "internalType": "struct BlockPager.Content[]",
          "name": "",
          "type": "tuple[]"
        }
      ],
      "stateMutability": "view",
      "type": "function"
    },
    {
      "inputs": [],
      "name": "fetchPrivateContents",
      "outputs": [
        {
          "components": [
            {
              "internalType": "uint256",
              "name": "tokenId",
              "type": "uint256"
            },
            {
              "internalType": "address payable",
              "name": "creator",
              "type": "address"
            },
            {
              "internalType": "address payable",
              "name": "viewer",
              "type": "address"
            },
            {
              "internalType": "uint256",
              "name": "numTransfers",
              "type": "uint256"
            },
            {
              "internalType": "uint256",
              "name": "numReads",
              "type": "uint256"
            },
            {
              "internalType": "uint256",
              "name": "numViews",
              "type": "uint256"
            },
            {
              "internalType": "uint256",
              "name": "price",
              "type": "uint256"
            },
            {
              "internalType": "bool",
              "name": "isPublic",
              "type": "bool"
            },
            {
              "internalType": "bool",
              "name": "hasPaid",
              "type": "bool"
            },
            {
              "internalType": "bool",
              "name": "isFeatured",
              "type": "bool"
            },
            {
              "internalType": "uint256",
              "name": "createdAt",
              "type": "uint256"
            }
          ],
          "internalType": "struct BlockPager.Content[]",
          "name": "",
          "type": "tuple[]"
        }
      ],
      "stateMutability": "view",
      "type": "function"
    },
    {
      "inputs": [
        {
          "internalType": "uint256",
          "name": "tokenId",
          "type": "uint256"
        }
      ],
      "name": "getApproved",
      "outputs": [
        {
          "internalType": "address",
          "name": "",
          "type": "address"
        }
      ],
      "stateMutability": "view",
      "type": "function"
    },
    {
      "inputs": [],
      "name": "getContractOwner",
      "outputs": [
        {
          "internalType": "address",
          "name": "",
          "type": "address"
        }
      ],
      "stateMutability": "view",
      "type": "function"
    },
    {
      "inputs": [
        {
          "internalType": "uint256",
          "name": "tokenId",
          "type": "uint256"
        }
      ],
      "name": "getCreationDate",
      "outputs": [
        {
          "internalType": "uint256",
          "name": "year",
          "type": "uint256"
        },
        {
          "internalType": "uint256",
          "name": "month",
          "type": "uint256"
        },
        {
          "internalType": "uint256",
          "name": "day",
          "type": "uint256"
        },
        {
          "internalType": "uint256",
          "name": "hour",
          "type": "uint256"
        },
        {
          "internalType": "uint256",
          "name": "minute",
          "type": "uint256"
        },
        {
          "internalType": "uint256",
          "name": "second",
          "type": "uint256"
        }
      ],
      "stateMutability": "view",
      "type": "function"
    },
    {
      "inputs": [],
      "name": "getFees",
      "outputs": [
        {
          "internalType": "uint256",
          "name": "",
          "type": "uint256"
        },
        {
          "internalType": "uint256",
          "name": "",
          "type": "uint256"
        }
      ],
      "stateMutability": "view",
      "type": "function"
    },
    {
      "inputs": [],
      "name": "getPicture",
      "outputs": [
        {
          "internalType": "string",
          "name": "",
          "type": "string"
        }
      ],
      "stateMutability": "view",
      "type": "function"
    },
    {
      "inputs": [],
      "name": "getUserAccount",
      "outputs": [
        {
          "internalType": "string",
          "name": "",
          "type": "string"
        },
        {
          "internalType": "address",
          "name": "",
          "type": "address"
        },
        {
          "internalType": "uint256",
          "name": "",
          "type": "uint256"
        },
        {
          "internalType": "bool",
          "name": "",
          "type": "bool"
        }
      ],
      "stateMutability": "view",
      "type": "function"
    },
    {
      "inputs": [
        {
          "internalType": "address",
          "name": "creator",
          "type": "address"
        }
      ],
      "name": "getUserStats",
      "outputs": [
        {
          "internalType": "uint256",
          "name": "",
          "type": "uint256"
        },
        {
          "internalType": "uint256",
          "name": "",
          "type": "uint256"
        },
        {
          "internalType": "uint256",
          "name": "",
          "type": "uint256"
        }
      ],
      "stateMutability": "view",
      "type": "function"
    },
    {
      "inputs": [
        {
          "internalType": "address",
          "name": "owner",
          "type": "address"
        },
        {
          "internalType": "address",
          "name": "operator",
          "type": "address"
        }
      ],
      "name": "isApprovedForAll",
      "outputs": [
        {
          "internalType": "bool",
          "name": "",
          "type": "bool"
        }
      ],
      "stateMutability": "view",
      "type": "function"
    },
    {
      "inputs": [],
      "name": "name",
      "outputs": [
        {
          "internalType": "string",
          "name": "",
          "type": "string"
        }
      ],
      "stateMutability": "view",
      "type": "function"
    },
    {
      "inputs": [
        {
          "internalType": "uint256",
          "name": "tokenId",
          "type": "uint256"
        }
      ],
      "name": "ownerOf",
      "outputs": [
        {
          "internalType": "address",
          "name": "",
          "type": "address"
        }
      ],
      "stateMutability": "view",
      "type": "function"
    },
    {
      "inputs": [
        {
          "internalType": "uint256",
          "name": "tokenId",
          "type": "uint256"
        }
      ],
      "name": "readContent",
      "outputs": [
        {
          "components": [
            {
              "internalType": "uint256",
              "name": "tokenId",
              "type": "uint256"
            },
            {
              "internalType": "address payable",
              "name": "creator",
              "type": "address"
            },
            {
              "internalType": "address payable",
              "name": "viewer",
              "type": "address"
            },
            {
              "internalType": "uint256",
              "name": "numTransfers",
              "type": "uint256"
            },
            {
              "internalType": "uint256",
              "name": "numReads",
              "type": "uint256"
            },
            {
              "internalType": "uint256",
              "name": "numViews",
              "type": "uint256"
            },
            {
              "internalType": "uint256",
              "name": "price",
              "type": "uint256"
            },
            {
              "internalType": "bool",
              "name": "isPublic",
              "type": "bool"
            },
            {
              "internalType": "bool",
              "name": "hasPaid",
              "type": "bool"
            },
            {
              "internalType": "bool",
              "name": "isFeatured",
              "type": "bool"
            },
            {
              "internalType": "uint256",
              "name": "createdAt",
              "type": "uint256"
            }
          ],
          "internalType": "struct BlockPager.Content",
          "name": "",
          "type": "tuple"
        }
      ],
      "stateMutability": "nonpayable",
      "type": "function"
    },
    {
      "inputs": [
        {
          "internalType": "address",
          "name": "from",
          "type": "address"
        },
        {
          "internalType": "address",
          "name": "to",
          "type": "address"
        },
        {
          "internalType": "uint256",
          "name": "tokenId",
          "type": "uint256"
        }
      ],
      "name": "safeTransferFrom",
      "outputs": [],
      "stateMutability": "nonpayable",
      "type": "function"
    },
    {
      "inputs": [
        {
          "internalType": "address",
          "name": "from",
          "type": "address"
        },
        {
          "internalType": "address",
          "name": "to",
          "type": "address"
        },
        {
          "internalType": "uint256",
          "name": "tokenId",
          "type": "uint256"
        },
        {
          "internalType": "bytes",
          "name": "data",
          "type": "bytes"
        }
      ],
      "name": "safeTransferFrom",
      "outputs": [],
      "stateMutability": "nonpayable",
      "type": "function"
    },
    {
      "inputs": [
        {
          "internalType": "address",
          "name": "operator",
          "type": "address"
        },
        {
          "internalType": "bool",
          "name": "approved",
          "type": "bool"
        }
      ],
      "name": "setApprovalForAll",
      "outputs": [],
      "stateMutability": "nonpayable",
      "type": "function"
    },
    {
      "inputs": [
        {
          "internalType": "address",
          "name": "newOwner",
          "type": "address"
        }
      ],
      "name": "setContractOwner",
      "outputs": [],
      "stateMutability": "nonpayable",
      "type": "function"
    },
    {
      "inputs": [
        {
          "internalType": "bytes4",
          "name": "interfaceId",
          "type": "bytes4"
        }
      ],
      "name": "supportsInterface",
      "outputs": [
        {
          "internalType": "bool",
          "name": "",
          "type": "bool"
        }
      ],
      "stateMutability": "view",
      "type": "function"
    },
    {
      "inputs": [],
      "name": "symbol",
      "outputs": [
        {
          "internalType": "string",
          "name": "",
          "type": "string"
        }
      ],
      "stateMutability": "view",
      "type": "function"
    },
    {
      "inputs": [
        {
          "internalType": "uint256",
          "name": "tokenId",
          "type": "uint256"
        }
      ],
      "name": "tokenURI",
      "outputs": [
        {
          "internalType": "string",
          "name": "",
          "type": "string"
        }
      ],
      "stateMutability": "view",
      "type": "function"
    },
    {
      "inputs": [],
      "name": "totalPrivateItems",
      "outputs": [
        {
          "internalType": "uint256",
          "name": "",
          "type": "uint256"
        }
      ],
      "stateMutability": "view",
      "type": "function"
    },
    {
      "inputs": [],
      "name": "totalSupply",
      "outputs": [
        {
          "internalType": "uint256",
          "name": "",
          "type": "uint256"
        }
      ],
      "stateMutability": "view",
      "type": "function"
    },
    {
      "inputs": [
        {
          "internalType": "address payable",
          "name": "receiver",
          "type": "address"
        },
        {
          "internalType": "uint256",
          "name": "tokenId",
          "type": "uint256"
        }
      ],
      "name": "transferContent",
      "outputs": [],
      "stateMutability": "nonpayable",
      "type": "function"
    },
    {
      "inputs": [
        {
          "internalType": "address",
          "name": "from",
          "type": "address"
        },
        {
          "internalType": "address",
          "name": "to",
          "type": "address"
        },
        {
          "internalType": "uint256",
          "name": "tokenId",
          "type": "uint256"
        }
      ],
      "name": "transferFrom",
      "outputs": [],
      "stateMutability": "nonpayable",
      "type": "function"
    },
    {
      "inputs": [
        {
          "internalType": "uint256",
          "name": "_featuredFee",
          "type": "uint256"
        }
      ],
      "name": "updateFeaturedFee",
      "outputs": [],
      "stateMutability": "payable",
      "type": "function"
    },
    {
      "inputs": [
        {
          "internalType": "uint256",
          "name": "_personalFee",
          "type": "uint256"
        }
      ],
      "name": "updatePersonalFee",
      "outputs": [],
      "stateMutability": "payable",
      "type": "function"
    },
    {
      "inputs": [
        {
          "internalType": "string",
          "name": "newPictureCID",
          "type": "string"
        }
      ],
      "name": "updatePicture",
      "outputs": [],
      "stateMutability": "nonpayable",
      "type": "function"
    },
    {
      "inputs": [],
      "name": "userCount",
      "outputs": [
        {
          "internalType": "uint256",
          "name": "",
          "type": "uint256"
        }
      ],
      "stateMutability": "view",
      "type": "function"
    },
    {
      "inputs": [
        {
          "internalType": "uint256",
          "name": "tokenId",
          "type": "uint256"
        }
      ],
      "name": "viewPublicItem",
      "outputs": [
        {
          "internalType": "bool",
          "name": "",
          "type": "bool"
        }
      ],
      "stateMutability": "view",
      "type": "function"
    },
    {
      "inputs": [
        {
          "internalType": "uint256",
          "name": "tokenId",
          "type": "uint256"
        }
      ],
      "name": "viewPublicItemForFree",
      "outputs": [
        {
          "components": [
            {
              "internalType": "uint256",
              "name": "tokenId",
              "type": "uint256"
            },
            {
              "internalType": "address payable",
              "name": "creator",
              "type": "address"
            },
            {
              "internalType": "address payable",
              "name": "viewer",
              "type": "address"
            },
            {
              "internalType": "uint256",
              "name": "numTransfers",
              "type": "uint256"
            },
            {
              "internalType": "uint256",
              "name": "numReads",
              "type": "uint256"
            },
            {
              "internalType": "uint256",
              "name": "numViews",
              "type": "uint256"
            },
            {
              "internalType": "uint256",
              "name": "price",
              "type": "uint256"
            },
            {
              "internalType": "bool",
              "name": "isPublic",
              "type": "bool"
            },
            {
              "internalType": "bool",
              "name": "hasPaid",
              "type": "bool"
            },
            {
              "internalType": "bool",
              "name": "isFeatured",
              "type": "bool"
            },
            {
              "internalType": "uint256",
              "name": "createdAt",
              "type": "uint256"
            }
          ],
          "internalType": "struct BlockPager.Content",
          "name": "",
          "type": "tuple"
        }
      ],
      "stateMutability": "nonpayable",
      "type": "function"
    },
    {
      "inputs": [
        {
          "internalType": "uint256",
          "name": "tokenId",
          "type": "uint256"
        }
      ],
      "name": "viewPublicItemWithPayment",
      "outputs": [
        {
          "components": [
            {
              "internalType": "uint256",
              "name": "tokenId",
              "type": "uint256"
            },
            {
              "internalType": "address payable",
              "name": "creator",
              "type": "address"
            },
            {
              "internalType": "address payable",
              "name": "viewer",
              "type": "address"
            },
            {
              "internalType": "uint256",
              "name": "numTransfers",
              "type": "uint256"
            },
            {
              "internalType": "uint256",
              "name": "numReads",
              "type": "uint256"
            },
            {
              "internalType": "uint256",
              "name": "numViews",
              "type": "uint256"
            },
            {
              "internalType": "uint256",
              "name": "price",
              "type": "uint256"
            },
            {
              "internalType": "bool",
              "name": "isPublic",
              "type": "bool"
            },
            {
              "internalType": "bool",
              "name": "hasPaid",
              "type": "bool"
            },
            {
              "internalType": "bool",
              "name": "isFeatured",
              "type": "bool"
            },
            {
              "internalType": "uint256",
              "name": "createdAt",
              "type": "uint256"
            }
          ],
          "internalType": "struct BlockPager.Content",
          "name": "",
          "type": "tuple"
        }
      ],
      "stateMutability": "payable",
      "type": "function"
    },
    {
      "inputs": [
        {
          "internalType": "address payable",
          "name": "recipient",
          "type": "address"
        }
      ],
      "name": "withdrawFunds",
      "outputs": [],
      "stateMutability": "nonpayable",
      "type": "function"
    }
  ],
  "bytecode": "0x608060405266470de4df820000600955670de0b6b3a7640000600a553480156200002857600080fd5b50604051806040016040528060058152602001642830b3b2b960d91b815250604051806040016040528060038152602001622823a960e91b815250816000908162000074919062000148565b50600162000083828262000148565b5050600160075550600b80546001600160a01b0319163317905562000214565b634e487b7160e01b600052604160045260246000fd5b600181811c90821680620000ce57607f821691505b602082108103620000ef57634e487b7160e01b600052602260045260246000fd5b50919050565b601f8211156200014357600081815260208120601f850160051c810160208610156200011e5750805b601f850160051c820191505b818110156200013f578281556001016200012a565b5050505b505050565b81516001600160401b03811115620001645762000164620000a3565b6200017c81620001758454620000b9565b84620000f5565b602080601f831160018114620001b457600084156200019b5750858301515b600019600386901b1c1916600185901b1785556200013f565b600085815260208120601f198616915b82811015620001e557888601518255948401946001909101908401620001c4565b5085821015620002045787850151600019600388901b60f8161c191681555b5050505050600190811b01905550565b614dec80620002246000396000f3fe6080604052600436106102675760003560e01c806386f2732811610144578063b88d4fde116100b6578063e39540f71161007a578063e39540f714610742578063e985e9c514610757578063ecd07caa146107a0578063efa93586146107c0578063efb8ff0c146107d3578063f54a847c146107f357600080fd5b8063b88d4fde146106a7578063c87b56dd146106c7578063ca77288d146106e7578063db0546e314610707578063db8d55f11461071a57600080fd5b8063a288de2311610108578063a288de23146105d2578063a34d42b8146105f2578063a59bed5814610612578063aac14cba14610632578063ac92417314610645578063ae601d951461065a57600080fd5b806386f273281461054657806395d89b411461055b5780639665ae941461057057806396d1356314610585578063a22cb465146105b257600080fd5b8063442890d5116101dd5780636352211e116101a15780636352211e1461049c578063677696be146104bc57806368742da6146104dc57806370a08231146104fc5780637ff4059c1461051c57806381c774b31461053157600080fd5b8063442890d5146103eb578063477c1968146104095780634e43603a146104295780635cf9bf21146104645780636115ca0c1461047757600080fd5b8063095ea7b31161022f578063095ea7b31461034157806318160ddd1461036157806323b872dd14610376578063314ca0f2146103965780634181193c146103b857806342842e0e146103cb57600080fd5b806301ffc9a71461026c57806306a99298146102a157806306fdde03146102c357806307973ccf146102e5578063081812fc14610309575b600080fd5b34801561027857600080fd5b5061028c6102873660046144a6565b610806565b60405190151581526020015b60405180910390f35b3480156102ad57600080fd5b506102c16102bc36600461456f565b610858565b005b3480156102cf57600080fd5b506102d861090f565b60405161029891906145f4565b3480156102f157600080fd5b506102fb60135481565b604051908152602001610298565b34801561031557600080fd5b50610329610324366004614607565b6109a1565b6040516001600160a01b039091168152602001610298565b34801561034d57600080fd5b506102c161035c366004614635565b6109c8565b34801561036d57600080fd5b506102fb610add565b34801561038257600080fd5b506102c1610391366004614661565b610aed565b3480156103a257600080fd5b506103ab610b1e565b604051610298919061473e565b6102fb6103c636600461478d565b610cfc565b3480156103d757600080fd5b506102c16103e6366004614661565b61107a565b3480156103f757600080fd5b50600b546001600160a01b0316610329565b34801561041557600080fd5b506102d86104243660046147d2565b611095565b34801561043557600080fd5b506104496104443660046147d2565b611133565b60408051938452602084019290925290820152606001610298565b6102c1610472366004614607565b6111fe565b34801561048357600080fd5b5061048c61126f565b60405161029894939291906147ef565b3480156104a857600080fd5b506103296104b7366004614607565b611367565b3480156104c857600080fd5b506102c16104d7366004614607565b6113c7565b3480156104e857600080fd5b506102c16104f73660046147d2565b611591565b34801561050857600080fd5b506102fb6105173660046147d2565b611686565b34801561052857600080fd5b506102d861170c565b34801561053d57600080fd5b506103ab61178b565b34801561055257600080fd5b506103ab6119ce565b34801561056757600080fd5b506102d8611b51565b34801561057c57600080fd5b506103ab611b60565b34801561059157600080fd5b506105a56105a0366004614607565b611d22565b6040516102989190614829565b3480156105be57600080fd5b506102c16105cd366004614838565b611fbc565b3480156105de57600080fd5b506102c16105ed366004614635565b611fcb565b3480156105fe57600080fd5b506102c161060d3660046147d2565b612232565b34801561061e57600080fd5b5061048c61062d3660046147d2565b612317565b6102fb61064036600461478d565b6123d6565b34801561065157600080fd5b506102fb6126ec565b34801561066657600080fd5b5061067a610675366004614607565b61273a565b604080519687526020870195909552938501929092526060840152608083015260a082015260c001610298565b3480156106b357600080fd5b506102c16106c2366004614876565b6127df565b3480156106d357600080fd5b506102d86106e2366004614607565b612817565b3480156106f357600080fd5b506102c161070236600461456f565b612927565b6102fb61071536600461456f565b612a95565b34801561072657600080fd5b50600954600a5460408051928352602083019190915201610298565b34801561074e57600080fd5b506103ab612dad565b34801561076357600080fd5b5061028c6107723660046148f6565b6001600160a01b03918216600090815260056020908152604080832093909416825291909152205460ff1690565b3480156107ac57600080fd5b5061028c6107bb366004614607565b612fb5565b6102c16107ce366004614607565b61305a565b3480156107df57600080fd5b506105a56107ee366004614607565b6130cb565b6105a5610801366004614607565b6133e7565b60006001600160e01b031982166380ac58cd60e01b148061083757506001600160e01b03198216635b5e139f60e01b145b8061085257506301ffc9a760e01b6001600160e01b03198316145b92915050565b61086061375b565b60008151116108b65760405162461bcd60e51b815260206004820152601c60248201527f4e6577206163636f756e74204349442069732072657175697265642e0000000060448201526064015b60405180910390fd5b3360009081526011602052604090206003015460ff166108e85760405162461bcd60e51b81526004016108ad90614924565b33600090815260126020526040902061090182826149d6565b5061090c6001600755565b50565b60606000805461091e90614954565b80601f016020809104026020016040519081016040528092919081815260200182805461094a90614954565b80156109975780601f1061096c57610100808354040283529160200191610997565b820191906000526020600020905b81548152906001019060200180831161097a57829003601f168201915b5050505050905090565b60006109ac826137b4565b506000908152600460205260409020546001600160a01b031690565b60006109d382611367565b9050806001600160a01b0316836001600160a01b031603610a405760405162461bcd60e51b815260206004820152602160248201527f4552433732313a20617070726f76616c20746f2063757272656e74206f776e656044820152603960f91b60648201526084016108ad565b336001600160a01b0382161480610a5c5750610a5c8133610772565b610ace5760405162461bcd60e51b815260206004820152603d60248201527f4552433732313a20617070726f76652063616c6c6572206973206e6f7420746f60448201527f6b656e206f776e6572206f7220617070726f76656420666f7220616c6c00000060648201526084016108ad565b610ad88383613813565b505050565b6000610ae860085490565b905090565b610af73382613881565b610b135760405162461bcd60e51b81526004016108ad90614a96565b610ad88383836138ff565b336000908152600e60209081526040808320805482518185028101850190935280835260609493830182828015610b7457602002820191906000526020600020905b815481526020019060010190808311610b60575b5050505050905060008151905060008167ffffffffffffffff811115610b9c57610b9c6144c3565b604051908082528060200260200182016040528015610bd557816020015b610bc26143d0565b815260200190600190039081610bba5790505b50905060005b82811015610cf4576000848281518110610bf757610bf7614ae3565b6020908102919091018101516000818152600c9092526040909120600181015491925090336001600160a01b0390911603610cdf5760408051610160810182528254815260018301546001600160a01b039081166020830152600284015416918101919091526003820154606082015260048201546080820152600582015460a0820152600682015460c0820152600782015460ff808216151560e084015261010080830482161515908401526201000090910416151561012082015260088201546101408201528451859085908110610cd357610cd3614ae3565b60200260200101819052505b50508080610cec90614b0f565b915050610bdb565b509392505050565b6000610d0661375b565b600a543414610d4e5760405162461bcd60e51b8152602060048201526014602482015273496e73756666696369656e742062616c616e636560601b60448201526064016108ad565b60008211610d9e5760405162461bcd60e51b815260206004820181905260248201527f7072696365206d7573742062652067726561746572207468616e20302077656960448201526064016108ad565b3360009081526011602052604090206003015460ff16610dd05760405162461bcd60e51b81526004016108ad90614924565b3360009081526012602052604081208054610dea90614954565b905011610e095760405162461bcd60e51b81526004016108ad90614b28565b610e17600880546001019055565b6000610e2260085490565b9050610e2e3382613a70565b610e388185613c09565b604051806101600160405280828152602001336001600160a01b0316815260200160006001600160a01b0316815260200160008152602001600081526020016000815260200184815260200160011515815260200160001515815260200160011515815260200142815250600c60008381526020019081526020016000206000820151816000015560208201518160010160006101000a8154816001600160a01b0302191690836001600160a01b0316021790555060408201518160020160006101000a8154816001600160a01b0302191690836001600160a01b03160217905550606082015181600301556080820151816004015560a0820151816005015560c0820151816006015560e08201518160070160006101000a81548160ff0219169083151502179055506101008201518160070160016101000a81548160ff0219169083151502179055506101208201518160070160026101000a81548160ff0219169083151502179055506101408201518160080155905050600e6000336001600160a01b03166001600160a01b03168152602001908152602001600020819080600181540180825580915050600190039060005260206000200160009091909190915055807ffa1d7be67f7664d85c98155f580b87440d9d14373a511b9525e3223a40ac7041336000866001806040516110669594939291906001600160a01b039586168152939094166020840152604083019190915215156060820152901515608082015260a00190565b60405180910390a290506108526001600755565b610ad8838383604051806020016040528060008152506127df565b6012602052600090815260409020805481906110b090614954565b80601f01602080910402602001604051908101604052809291908181526020018280546110dc90614954565b80156111295780601f106110fe57610100808354040283529160200191611129565b820191906000526020600020905b81548152906001019060200180831161110c57829003601f168201915b5050505050905081565b6001600160a01b0381166000908152600e6020526040812054819081908180805b838110156111f0576001600160a01b0388166000908152600e6020526040812080548390811061118657611186614ae3565b6000918252602080832090910154808352600c90915260409091206005810154919250906111b49086614b5f565b6007820154909550610100900460ff16156111db5760068101546111d89085614b5f565b93505b505080806111e890614b0f565b915050611154565b509196909550909350915050565b61120661375b565b600b546001600160a01b031633146112605760405162461bcd60e51b815260206004820152601a60248201527f4f6e6c79206f776e65722063616e20757064617465206665652e00000000000060448201526064016108ad565b600a81905561090c6001600755565b336000908152601160205260408120600381015460609291829182919060ff166112ab5760405162461bcd60e51b81526004016108ad90614924565b600181015460028201546003830154835484936001600160a01b0316929160ff169084906112d890614954565b80601f016020809104026020016040519081016040528092919081815260200182805461130490614954565b80156113515780601f1061132657610100808354040283529160200191611351565b820191906000526020600020905b81548152906001019060200180831161133457829003601f168201915b5050505050935094509450945094505090919293565b6000818152600260205260408120546001600160a01b0316806108525760405162461bcd60e51b8152602060048201526018602482015277115490cdcc8c4e881a5b9d985b1a59081d1bdad95b88125160421b60448201526064016108ad565b6113cf61375b565b336113d982611367565b6001600160a01b03161461142f5760405162461bcd60e51b815260206004820152601e60248201527f4f6e6c79206f776e65722063616e206275726e2074686973207061676572000060448201526064016108ad565b336000908152600d60205260408120905b81548110156114f4578282828154811061145c5761145c614ae3565b9060005260206000200154036114e2578154829061147c90600190614b72565b8154811061148c5761148c614ae3565b90600052602060002001548282815481106114a9576114a9614ae3565b9060005260206000200181905550818054806114c7576114c7614b85565b600190038181906000526020600020016000905590556114f4565b806114ec81614b0f565b915050611440565b506114fe82613c9c565b6000828152600c60205260408082208281556001810180546001600160a01b031990811690915560028201805490911690556003810183905560048101839055600581018390556006810183905560078101805462ffffff191690556008018290555183917fbe55442930fbfd3340629646e19a83533804572254ab957903a91e562c0cc2b091a25061090c6001600755565b61159961375b565b600b546001600160a01b031633146116015760405162461bcd60e51b815260206004820152602560248201527f4f6e6c7920636f6e7472616374206f776e65722063616e207769746864726177604482015264206665657360d81b60648201526084016108ad565b600047116116515760405162461bcd60e51b815260206004820152601e60248201527f4e6f2066756e647320617661696c61626c6520746f207769746864726177000060448201526064016108ad565b6040516001600160a01b038216904780156108fc02916000818181858888f19350505050158015610901573d6000803e3d6000fd5b60006001600160a01b0382166116f05760405162461bcd60e51b815260206004820152602960248201527f4552433732313a2061646472657373207a65726f206973206e6f7420612076616044820152683634b21037bbb732b960b91b60648201526084016108ad565b506001600160a01b031660009081526003602052604090205490565b3360009081526011602052604090206003015460609060ff166117715760405162461bcd60e51b815260206004820152601b60248201527f55736572206163636f756e7420646f6573206e6f74206578697374000000000060448201526064016108ad565b336000908152601260205260409020805461091e90614954565b60606000611797610add565b67ffffffffffffffff8111156117af576117af6144c3565b6040519080825280602002602001820160405280156117d8578160200160208202803683370190505b5090506000805b6117e7610add565b81101561186e576000600c816117fe846001614b5f565b815260200190815260200160002090508060070160029054906101000a900460ff161561185b57611830826001614b5f565b84848151811061184257611842614ae3565b60209081029190910101528261185781614b0f565b9350505b508061186681614b0f565b9150506117df565b5060008167ffffffffffffffff81111561188a5761188a6144c3565b6040519080825280602002602001820160405280156118c357816020015b6118b06143d0565b8152602001906001900390816118a85790505b50905060005b82811015610cf45760008482815181106118e5576118e5614ae3565b6020908102919091018101516000818152600c83526040908190208151610160810183528154815260018201546001600160a01b03908116958201959095526002820154909416918401919091526003810154606084015260048101546080840152600581015460a0840152600681015460c0840152600781015460ff808216151560e08601526101008083048216151590860152620100009091041615156101208401526008810154610140840152855191935091908590859081106119ae576119ae614ae3565b6020026020010181905250505080806119c690614b0f565b9150506118c9565b336000908152600f60205260408120546060918167ffffffffffffffff8111156119fa576119fa6144c3565b604051908082528060200260200182016040528015611a3357816020015b611a206143d0565b815260200190600190039081611a185790505b50905060005b82811015611b4a57336000908152600f60205260408120805483908110611a6257611a62614ae3565b6000918252602080832090910154808352600c82526040928390208351610160810185528154815260018201546001600160a01b03908116948201949094526002820154909316938301939093526003830154606083015260048301546080830152600583015460a0830152600683015460c0830152600783015460ff808216151560e0850152610100808304821615159085015262010000909104161515610120830152600890920154610140820152845191925090849084908110611b2b57611b2b614ae3565b6020026020010181905250508080611b4290614b0f565b915050611a39565b5092915050565b60606001805461091e90614954565b336000908152600d60209081526040808320805482518185028101850190935280835260609493830182828015611bb657602002820191906000526020600020905b815481526020019060010190808311611ba2575b5050505050905060008151905060008167ffffffffffffffff811115611bde57611bde6144c3565b604051908082528060200260200182016040528015611c1757816020015b611c046143d0565b815260200190600190039081611bfc5790505b50905060005b82811015610cf4576000848281518110611c3957611c39614ae3565b6020908102919091018101516000818152600c83526040908190208151610160810183528154815260018201546001600160a01b03908116958201959095526002820154909416918401919091526003810154606084015260048101546080840152600581015460a0840152600681015460c0840152600781015460ff808216151560e0860152610100808304821615159086015262010000909104161515610120840152600881015461014084015285519193509190859085908110611d0257611d02614ae3565b602002602001018190525050508080611d1a90614b0f565b915050611c1d565b611d2a6143d0565b611d3261375b565b6000828152600c60205260409020600781015460ff16611d895760405162461bcd60e51b81526020600482015260126024820152714974656d206973206e6f74207075626c696360701b60448201526064016108ad565b60018101546001600160a01b03163303611e385760408051610160810182528254815260018301546001600160a01b039081166020830152600284015416918101919091526003820154606082015260048201546080820152600582015460a0820152600682015460c0820152600782015460ff808216151560e08401526101008083048216151590840152620100009091041615156101208201526008909101546101408201529050611fad565b60005b600084815260106020526040902054811015611f51576000848152601060205260409020805482908110611e7157611e71614ae3565b6000918252602090912001546001600160a01b03163303611f3f57600582018054906000611e9e83614b0f565b909155505060408051610160810182528354815260018401546001600160a01b039081166020830152600285015416918101919091526003830154606082015260048301546080820152600583015460a0820152600683015460c0820152600783015460ff808216151560e0840152610100808304821615159084015262010000909104161515610120820152600890920154610140830152509050611fad565b80611f4981614b0f565b915050611e3b565b5060405162461bcd60e51b815260206004820152602a60248201527f566965776572206973206e6f7420617574686f72697a656420746f20766965776044820152692074686973206974656d60b01b60648201526084016108ad565b611fb76001600755565b919050565b611fc7338383613cdc565b5050565b611fd361375b565b33611fdd82611367565b6001600160a01b0316146120335760405162461bcd60e51b815260206004820152601d60248201527f4f6e6c79206f776e65722063616e207472616e7366657220706167657200000060448201526064016108ad565b6000818152600c60205260409020600301541561209c5760405162461bcd60e51b815260206004820152602160248201527f506167657220616c7265616479206265656e207472616e7366657272656428316044820152602960f81b60648201526084016108ad565b6120b733838360405180602001604052806000815250613daa565b336000908152600d60205260408120905b815481101561217c57828282815481106120e4576120e4614ae3565b90600052602060002001540361216a578154829061210490600190614b72565b8154811061211457612114614ae3565b906000526020600020015482828154811061213157612131614ae3565b90600052602060002001819055508180548061214f5761214f614b85565b6001900381819060005260206000200160009055905561217c565b8061217481614b0f565b9150506120c8565b506001600160a01b0383166000818152600d6020908152604080832080546001818101835591855283852001879055868452600c909252822080820180546001600160a01b031916909417909355600390920180549091906121df908490614b5f565b9091555050604080513381526001600160a01b038516602082015283917fe963106fc8dc28fa530812384adf398de69324919f97af64a67815f642dc4316910160405180910390a250611fc76001600755565b600b546001600160a01b0316331461229f5760405162461bcd60e51b815260206004820152602a60248201527f4f6e6c79207468652063757272656e74206f776e65722063616e207365742061604482015269103732bb9037bbb732b960b11b60648201526084016108ad565b6001600160a01b0381166122f55760405162461bcd60e51b815260206004820152601960248201527f496e76616c6964206e6577206f776e657220616464726573730000000000000060448201526064016108ad565b600b80546001600160a01b0319166001600160a01b0392909216919091179055565b60116020526000908152604090208054819061233290614954565b80601f016020809104026020016040519081016040528092919081815260200182805461235e90614954565b80156123ab5780601f10612380576101008083540402835291602001916123ab565b820191906000526020600020905b81548152906001019060200180831161238e57829003601f168201915b505050506001830154600284015460039094015492936001600160a01b039091169290915060ff1684565b60006123e061375b565b600082116124305760405162461bcd60e51b815260206004820181905260248201527f7072696365206d7573742062652067726561746572207468616e20302077656960448201526064016108ad565b3360009081526011602052604090206003015460ff166124625760405162461bcd60e51b81526004016108ad90614924565b336000908152601260205260408120805461247c90614954565b90501161249b5760405162461bcd60e51b81526004016108ad90614b28565b6124a9600880546001019055565b60006124b460085490565b90506124c03382613a70565b6124ca8185613c09565b604051806101600160405280828152602001336001600160a01b0316815260200160006001600160a01b0316815260200160008152602001600081526020016000815260200184815260200160011515815260200160001515815260200160001515815260200142815250600c60008381526020019081526020016000206000820151816000015560208201518160010160006101000a8154816001600160a01b0302191690836001600160a01b0316021790555060408201518160020160006101000a8154816001600160a01b0302191690836001600160a01b03160217905550606082015181600301556080820151816004015560a0820151816005015560c0820151816006015560e08201518160070160006101000a81548160ff0219169083151502179055506101008201518160070160016101000a81548160ff0219169083151502179055506101208201518160070160026101000a81548160ff0219169083151502179055506101408201518160080155905050600e6000336001600160a01b03166001600160a01b03168152602001908152602001600020819080600181540180825580915050600190039060005260206000200160009091909190915055807f35a86342264ba9cf886ce6d3d085ea3462b919c3fb9bc9f236d3b57e7cbd2c3f33600086600160405161106694939291906001600160a01b0394851681529290931660208301526040820152901515606082015260800190565b60008060015b6008548111612734576000818152600c602052604090206007015460ff16612722578161271e81614b0f565b9250505b8061272c81614b0f565b9150506126f2565b50919050565b600080600080600080612764876000908152600260205260409020546001600160a01b0316151590565b6127b05760405162461bcd60e51b815260206004820152601760248201527f546f6b656e20494420646f6573206e6f7420657869737400000000000000000060448201526064016108ad565b6000878152600c60205260409020600801546127cb90613ddd565b949c939b5091995097509550909350915050565b6127e93383613881565b6128055760405162461bcd60e51b81526004016108ad90614a96565b61281184848484613daa565b50505050565b6060612822826137b4565b6000828152600660205260408120805461283b90614954565b80601f016020809104026020016040519081016040528092919081815260200182805461286790614954565b80156128b45780601f10612889576101008083540402835291602001916128b4565b820191906000526020600020905b81548152906001019060200180831161289757829003601f168201915b5050505050905060006128d260408051602081019091526000815290565b905080516000036128e4575092915050565b8151156129165780826040516020016128fe929190614b9b565b60405160208183030381529060405292505050919050565b61291f84613e51565b949350505050565b61292f61375b565b60008151116129805760405162461bcd60e51b815260206004820152601c60248201527f4e6577206163636f756e74204349442069732072657175697265642e0000000060448201526064016108ad565b3360009081526011602052604090206003015460ff16156129ba573360009081526011602052604090206129b482826149d6565b50612a8b565b3360009081526011602052604090206129d382826149d6565b506040518060800160405280828152602001336001600160a01b031681526020016013546001612a039190614b5f565b8152600160209182015233600090815260119091526040902081518190612a2a90826149d6565b5060208201516001820180546001600160a01b0319166001600160a01b03909216919091179055604082015160028201556060909101516003909101805460ff191691151591909117905560138054906000612a8583614b0f565b91905055505b61090c6001600755565b6000612a9f61375b565b6009543414612ae75760405162461bcd60e51b8152602060048201526014602482015273496e73756666696369656e742062616c616e636560601b60448201526064016108ad565b3360009081526011602052604090206003015460ff16612b195760405162461bcd60e51b81526004016108ad90614924565b3360009081526012602052604081208054612b3390614954565b905011612b525760405162461bcd60e51b81526004016108ad90614b28565b612b60600880546001019055565b6000612b6b60085490565b9050612b773382613a70565b612b818184613c09565b604051806101600160405280828152602001336001600160a01b0316815260200160006001600160a01b031681526020016000815260200160008152602001600081526020016000815260200160001515815260200160011515815260200160001515815260200142815250600c60008381526020019081526020016000206000820151816000015560208201518160010160006101000a8154816001600160a01b0302191690836001600160a01b0316021790555060408201518160020160006101000a8154816001600160a01b0302191690836001600160a01b03160217905550606082015181600301556080820151816004015560a0820151816005015560c0820151816006015560e08201518160070160006101000a81548160ff0219169083151502179055506101008201518160070160016101000a81548160ff0219169083151502179055506101208201518160070160026101000a81548160ff0219169083151502179055506101408201518160080155905050600d6000336001600160a01b03166001600160a01b03168152602001908152602001600020819080600181540180825580915050600190039060005260206000200160009091909190915055807fc60ab42824fa96cab9ab7f76a8cce9ca31d7f97fdbd97f971ee2d47a973899e333600080604051612d99939291906001600160a01b039390931683526020830191909152604082015260600190565b60405180910390a29050611fb76001600755565b60606000805b612dbb610add565b811015612e28576000600c81612dd2846001614b5f565b81526020810191909152604001600020600781015490915060ff1680612e025750600781015462010000900460ff165b15612e155782612e1181614b0f565b9350505b5080612e2081614b0f565b915050612db3565b5060008167ffffffffffffffff811115612e4457612e446144c3565b604051908082528060200260200182016040528015612e7d57816020015b612e6a6143d0565b815260200190600190039081612e625790505b5090506000805b612e8c610add565b811015612fac576000600c81612ea3846001614b5f565b81526020810191909152604001600020600781015490915060ff1680612ed35750600781015462010000900460ff165b15612f995760408051610160810182528254815260018301546001600160a01b039081166020830152600284015416918101919091526003820154606082015260048201546080820152600582015460a0820152600682015460c0820152600782015460ff808216151560e084015261010080830482161515908401526201000090910416151561012082015260088201546101408201528451859085908110612f7f57612f7f614ae3565b60200260200101819052508280612f9590614b0f565b9350505b5080612fa481614b0f565b915050612e84565b50909392505050565b6000818152600c6020526040812060018101546001600160a01b03163303612fe05750600192915050565b60005b60008481526010602052604090205481101561305057600084815260106020526040902080548290811061301957613019614ae3565b6000918252602090912001546001600160a01b0316330361303e575060019392505050565b8061304881614b0f565b915050612fe3565b5060009392505050565b61306261375b565b600b546001600160a01b031633146130bc5760405162461bcd60e51b815260206004820152601a60248201527f4f6e6c79206f776e65722063616e20757064617465206665652e00000000000060448201526064016108ad565b600981905561090c6001600755565b6130d36143d0565b6130db61375b565b6000828152600c60205260409020336130f384611367565b6001600160a01b0316146131495760405162461bcd60e51b815260206004820152601e60248201527f4f6e6c79206f776e65722063616e20726561642074686973207061676572000060448201526064016108ad565b600781600401541061319d5760405162461bcd60e51b815260206004820152601860248201527f4d6178696d756d2836292072656164732072656163686564000000000000000060448201526064016108ad565b60018160040160008282546131b29190614b5f565b909155505060405183907f119df89ad369ffd103f76b00491dcfa6b5ae8d7462f03864a03bf98dee6fff0f90600090a2806004015460060361334757336000908152600d60205260408120905b81548110156132b3578482828154811061321b5761321b614ae3565b9060005260206000200154036132a1578154829061323b90600190614b72565b8154811061324b5761324b614ae3565b906000526020600020015482828154811061326857613268614ae3565b90600052602060002001819055508180548061328657613286614b85565b600190038181906000526020600020016000905590556132b3565b806132ab81614b0f565b9150506131ff565b506132bd84613c9c565b6000848152600c60205260408082208281556001810180546001600160a01b031990811690915560028201805490911690556003810183905560048101839055600581018390556006810183905560078101805462ffffff191690556008018290555185917fbe55442930fbfd3340629646e19a83533804572254ab957903a91e562c0cc2b091a2505b60408051610160810182528254815260018301546001600160a01b039081166020830152600284015416918101919091526003820154606082015260048201546080820152600582015460a0820152600682015460c0820152600782015460ff808216151560e08401526101008083048216151590840152620100009091041615156101208201526008909101546101408201529050611fb76001600755565b6133ef6143d0565b6133f761375b565b6000828152600c60205260409020600781015460ff1661344e5760405162461bcd60e51b81526020600482015260126024820152714974656d206973206e6f74207075626c696360701b60448201526064016108ad565b60018101546001600160a01b031633036134bd5760405162461bcd60e51b815260206004820152602a60248201527f43726561746f722063616e6e6f742070617920746f20766965772074686569726044820152691037bbb71034ba32b69760b11b60648201526084016108ad565b60005b60008481526010602052604090205481101561357e5760008481526010602052604090208054829081106134f6576134f6614ae3565b6000918252602090912001546001600160a01b0316330361356c5760405162461bcd60e51b815260206004820152602a60248201527f5669657765722068617320616c7265616479207061696420746f2076696577206044820152693a3434b99034ba32b69760b11b60648201526084016108ad565b8061357681614b0f565b9150506134c0565b50806006015434146135d25760405162461bcd60e51b815260206004820152601960248201527f496e636f7272656374207061796d656e7420616d6f756e742e0000000000000060448201526064016108ad565b600060648260060154605d6135e79190614bca565b6135f19190614bf7565b60018301546040519192506001600160a01b03169082156108fc029083906000818181858888f1935050505015801561362e573d6000803e3d6000fd5b5060078201805461ff0019166101001790556002820180546001600160a01b0319163317905560058201805490600061366683614b0f565b90915550505060008381526010602090815260408083208054600181810183559185528385200180546001600160a01b031916339081179091558452600f8352818420805480830182559085529383902090930186905580516101608101825284548152928401546001600160a01b03908116928401929092526002840154909116908201526003820154606082015260048201546080820152600582015460a0820152600682015460c0820152600782015460ff808216151560e08401526101008083048216151590840152620100009091041615156101208201526008909101546101408201529050611fb76001600755565b6002600754036137ad5760405162461bcd60e51b815260206004820152601f60248201527f5265656e7472616e637947756172643a207265656e7472616e742063616c6c0060448201526064016108ad565b6002600755565b6000818152600260205260409020546001600160a01b031661090c5760405162461bcd60e51b8152602060048201526018602482015277115490cdcc8c4e881a5b9d985b1a59081d1bdad95b88125160421b60448201526064016108ad565b600081815260046020526040902080546001600160a01b0319166001600160a01b038416908117909155819061384882611367565b6001600160a01b03167f8c5be1e5ebec7d5bd14f71427d1e84f3dd0314c0f7b2291e5b200ac8c7c3b92560405160405180910390a45050565b60008061388d83611367565b9050806001600160a01b0316846001600160a01b031614806138d457506001600160a01b0380821660009081526005602090815260408083209388168352929052205460ff165b8061291f5750836001600160a01b03166138ed846109a1565b6001600160a01b031614949350505050565b826001600160a01b031661391282611367565b6001600160a01b0316146139385760405162461bcd60e51b81526004016108ad90614c0b565b6001600160a01b03821661399a5760405162461bcd60e51b8152602060048201526024808201527f4552433732313a207472616e7366657220746f20746865207a65726f206164646044820152637265737360e01b60648201526084016108ad565b6139a78383836001613ec5565b826001600160a01b03166139ba82611367565b6001600160a01b0316146139e05760405162461bcd60e51b81526004016108ad90614c0b565b600081815260046020908152604080832080546001600160a01b03199081169091556001600160a01b0387811680865260038552838620805460001901905590871680865283862080546001019055868652600290945282852080549092168417909155905184937fddf252ad1be2c89b69c2b068fc378daa952ba7f163c4a11628f55a4df523b3ef91a4505050565b6001600160a01b038216613ac65760405162461bcd60e51b815260206004820181905260248201527f4552433732313a206d696e7420746f20746865207a65726f206164647265737360448201526064016108ad565b6000818152600260205260409020546001600160a01b031615613b2b5760405162461bcd60e51b815260206004820152601c60248201527f4552433732313a20746f6b656e20616c7265616479206d696e7465640000000060448201526064016108ad565b613b39600083836001613ec5565b6000818152600260205260409020546001600160a01b031615613b9e5760405162461bcd60e51b815260206004820152601c60248201527f4552433732313a20746f6b656e20616c7265616479206d696e7465640000000060448201526064016108ad565b6001600160a01b038216600081815260036020908152604080832080546001019055848352600290915280822080546001600160a01b0319168417905551839291907fddf252ad1be2c89b69c2b068fc378daa952ba7f163c4a11628f55a4df523b3ef908290a45050565b6000828152600260205260409020546001600160a01b0316613c845760405162461bcd60e51b815260206004820152602e60248201527f45524337323155524953746f726167653a2055524920736574206f66206e6f6e60448201526d32bc34b9ba32b73a103a37b5b2b760911b60648201526084016108ad565b6000828152600660205260409020610ad882826149d6565b613ca581613f4d565b60008181526006602052604090208054613cbe90614954565b15905061090c57600081815260066020526040812061090c91614442565b816001600160a01b0316836001600160a01b031603613d3d5760405162461bcd60e51b815260206004820152601960248201527f4552433732313a20617070726f766520746f2063616c6c65720000000000000060448201526064016108ad565b6001600160a01b03838116600081815260056020908152604080832094871680845294825291829020805460ff191686151590811790915591519182527f17307eab39ab6107e8899845ad3d59bd9653f200f220920489ca2b5937696c31910160405180910390a3505050565b613db58484846138ff565b613dc184848484613ff0565b6128115760405162461bcd60e51b81526004016108ad90614c50565b60008080808080613df9613df46201518089614bf7565b6140f1565b919750955093506000613e0f6201518089614ca2565b9050613e1d610e1082614bf7565b9350613e2b610e1082614ca2565b9050613e38603c82614bf7565b9250613e45603c82614ca2565b91505091939550919395565b6060613e5c826137b4565b6000613e7360408051602081019091526000815290565b90506000815111613e935760405180602001604052806000815250613ebe565b80613e9d84614265565b604051602001613eae929190614b9b565b6040516020818303038152906040525b9392505050565b6001811115612811576001600160a01b03841615613f0b576001600160a01b03841660009081526003602052604081208054839290613f05908490614b72565b90915550505b6001600160a01b03831615612811576001600160a01b03831660009081526003602052604081208054839290613f42908490614b5f565b909155505050505050565b6000613f5882611367565b9050613f68816000846001613ec5565b613f7182611367565b600083815260046020908152604080832080546001600160a01b03199081169091556001600160a01b0385168085526003845282852080546000190190558785526002909352818420805490911690555192935084927fddf252ad1be2c89b69c2b068fc378daa952ba7f163c4a11628f55a4df523b3ef908390a45050565b60006001600160a01b0384163b156140e657604051630a85bd0160e11b81526001600160a01b0385169063150b7a0290614034903390899088908890600401614cb6565b6020604051808303816000875af192505050801561406f575060408051601f3d908101601f1916820190925261406c91810190614cf3565b60015b6140cc573d80801561409d576040519150601f19603f3d011682016040523d82523d6000602084013e6140a2565b606091505b5080516000036140c45760405162461bcd60e51b81526004016108ad90614c50565b805181602001fd5b6001600160e01b031916630a85bd0160e11b14905061291f565b506001949350505050565b60008080838162253d8c6141088362010bd9614d10565b6141129190614d10565b9050600062023ab1614125836004614d38565b61412f9190614d68565b905060046141408262023ab1614d38565b61414b906003614d10565b6141559190614d68565b61415f9083614d96565b9150600062164b09614172846001614d10565b61417e90610fa0614d38565b6141889190614d68565b90506004614198826105b5614d38565b6141a29190614d68565b6141ac9084614d96565b6141b790601f614d10565b9250600061098f6141c9856050614d38565b6141d39190614d68565b9050600060506141e58361098f614d38565b6141ef9190614d68565b6141f99086614d96565b9050614206600b83614d68565b945061421385600c614d38565b61421e836002614d10565b6142289190614d96565b91508483614237603187614d96565b614242906064614d38565b61424c9190614d10565b6142569190614d10565b9a919950975095505050505050565b60606000614272836142f8565b600101905060008167ffffffffffffffff811115614292576142926144c3565b6040519080825280601f01601f1916602001820160405280156142bc576020820181803683370190505b5090508181016020015b600019016f181899199a1a9b1b9c1cb0b131b232b360811b600a86061a8153600a85049450846142c657509392505050565b60008072184f03e93ff9f4daa797ed6e38ed64bf6a1f0160401b83106143375772184f03e93ff9f4daa797ed6e38ed64bf6a1f0160401b830492506040015b6d04ee2d6d415b85acef81000000008310614363576d04ee2d6d415b85acef8100000000830492506020015b662386f26fc10000831061438157662386f26fc10000830492506010015b6305f5e1008310614399576305f5e100830492506008015b61271083106143ad57612710830492506004015b606483106143bf576064830492506002015b600a83106108525760010192915050565b6040518061016001604052806000815260200160006001600160a01b0316815260200160006001600160a01b0316815260200160008152602001600081526020016000815260200160008152602001600015158152602001600015158152602001600015158152602001600081525090565b50805461444e90614954565b6000825580601f1061445e575050565b601f01602090049060005260206000209081019061090c91905b8082111561448c5760008155600101614478565b5090565b6001600160e01b03198116811461090c57600080fd5b6000602082840312156144b857600080fd5b8135613ebe81614490565b634e487b7160e01b600052604160045260246000fd5b600067ffffffffffffffff808411156144f4576144f46144c3565b604051601f8501601f19908116603f0116810190828211818310171561451c5761451c6144c3565b8160405280935085815286868601111561453557600080fd5b858560208301376000602087830101525050509392505050565b600082601f83011261456057600080fd5b613ebe838335602085016144d9565b60006020828403121561458157600080fd5b813567ffffffffffffffff81111561459857600080fd5b61291f8482850161454f565b60005b838110156145bf5781810151838201526020016145a7565b50506000910152565b600081518084526145e08160208601602086016145a4565b601f01601f19169290920160200192915050565b602081526000613ebe60208301846145c8565b60006020828403121561461957600080fd5b5035919050565b6001600160a01b038116811461090c57600080fd5b6000806040838503121561464857600080fd5b823561465381614620565b946020939093013593505050565b60008060006060848603121561467657600080fd5b833561468181614620565b9250602084013561469181614620565b929592945050506040919091013590565b8051825260208101516146c060208401826001600160a01b03169052565b5060408101516146db60408401826001600160a01b03169052565b50606081015160608301526080810151608083015260a081015160a083015260c081015160c083015260e081015161471760e084018215159052565b50610100818101511515908301526101208082015115159083015261014090810151910152565b6020808252825182820181905260009190848201906040850190845b818110156147815761476d8385516146a2565b92840192610160929092019160010161475a565b50909695505050505050565b600080604083850312156147a057600080fd5b823567ffffffffffffffff8111156147b757600080fd5b6147c38582860161454f565b95602094909401359450505050565b6000602082840312156147e457600080fd5b8135613ebe81614620565b60808152600061480260808301876145c8565b6001600160a01b039590951660208301525060408101929092521515606090910152919050565b610160810161085282846146a2565b6000806040838503121561484b57600080fd5b823561485681614620565b91506020830135801515811461486b57600080fd5b809150509250929050565b6000806000806080858703121561488c57600080fd5b843561489781614620565b935060208501356148a781614620565b925060408501359150606085013567ffffffffffffffff8111156148ca57600080fd5b8501601f810187136148db57600080fd5b6148ea878235602084016144d9565b91505092959194509250565b6000806040838503121561490957600080fd5b823561491481614620565b9150602083013561486b81614620565b6020808252601690820152751058d8dbdd5b9d08191bd95cc81b9bdd08195e1a5cdd60521b604082015260600190565b600181811c9082168061496857607f821691505b60208210810361273457634e487b7160e01b600052602260045260246000fd5b601f821115610ad857600081815260208120601f850160051c810160208610156149af5750805b601f850160051c820191505b818110156149ce578281556001016149bb565b505050505050565b815167ffffffffffffffff8111156149f0576149f06144c3565b614a04816149fe8454614954565b84614988565b602080601f831160018114614a395760008415614a215750858301515b600019600386901b1c1916600185901b1785556149ce565b600085815260208120601f198616915b82811015614a6857888601518255948401946001909101908401614a49565b5085821015614a865787850151600019600388901b60f8161c191681555b5050505050600190811b01905550565b6020808252602d908201527f4552433732313a2063616c6c6572206973206e6f7420746f6b656e206f776e6560408201526c1c881bdc88185c1c1c9bdd9959609a1b606082015260800190565b634e487b7160e01b600052603260045260246000fd5b634e487b7160e01b600052601160045260246000fd5b600060018201614b2157614b21614af9565b5060010190565b6020808252601a908201527f596f75722050726f66696c6520697320696e636f6d706c657465000000000000604082015260600190565b8082018082111561085257610852614af9565b8181038181111561085257610852614af9565b634e487b7160e01b600052603160045260246000fd5b60008351614bad8184602088016145a4565b835190830190614bc18183602088016145a4565b01949350505050565b808202811582820484141761085257610852614af9565b634e487b7160e01b600052601260045260246000fd5b600082614c0657614c06614be1565b500490565b60208082526025908201527f4552433732313a207472616e736665722066726f6d20696e636f72726563742060408201526437bbb732b960d91b606082015260800190565b60208082526032908201527f4552433732313a207472616e7366657220746f206e6f6e20455243373231526560408201527131b2b4bb32b91034b6b83632b6b2b73a32b960711b606082015260800190565b600082614cb157614cb1614be1565b500690565b6001600160a01b0385811682528416602082015260408101839052608060608201819052600090614ce9908301846145c8565b9695505050505050565b600060208284031215614d0557600080fd5b8151613ebe81614490565b8082018281126000831280158216821582161715614d3057614d30614af9565b505092915050565b80820260008212600160ff1b84141615614d5457614d54614af9565b818105831482151761085257610852614af9565b600082614d7757614d77614be1565b600160ff1b821460001984141615614d9157614d91614af9565b500590565b8181036000831280158383131683831282161715611b4a57611b4a614af956fea264697066735822122009e841b2fff75b879283b9f79b5084c6b0b5231d56ecbc09d5a2f2b788bb3e4b64736f6c63430008110033",
  "linkReferences": {},
  "deployedLinkReferences": {}
}